{
  "address": "0x70e0bA845a1A0F2DA3359C97E0285013525FFC49",
  "abi": [
    {
      "anonymous": false,
      "inputs": [
        {
          "indexed": true,
          "internalType": "address",
          "name": "previousOwner",
          "type": "address"
        },
        {
          "indexed": true,
          "internalType": "address",
          "name": "newOwner",
          "type": "address"
        }
      ],
      "name": "OwnershipTransferred",
      "type": "event"
    },
    {
      "inputs": [],
      "name": "CORE_TOKEN",
      "outputs": [
        {
          "internalType": "contract IERC20",
          "name": "",
          "type": "address"
        }
      ],
      "stateMutability": "view",
      "type": "function"
    },
    {
      "inputs": [],
      "name": "DAI",
      "outputs": [
        {
          "internalType": "contract IERC20",
          "name": "",
          "type": "address"
        }
      ],
      "stateMutability": "view",
      "type": "function"
    },
    {
      "inputs": [
        {
          "internalType": "address",
          "name": "user",
          "type": "address"
        }
      ],
      "name": "accruedInterest",
      "outputs": [
        {
          "internalType": "uint256",
          "name": "",
          "type": "uint256"
        }
      ],
      "stateMutability": "view",
      "type": "function"
    },
    {
      "inputs": [
        {
          "internalType": "contract IERC20",
          "name": "token",
          "type": "address"
        },
        {
          "internalType": "uint256",
          "name": "amount",
          "type": "uint256"
        }
      ],
      "name": "addCollateral",
      "outputs": [],
      "stateMutability": "nonpayable",
      "type": "function"
    },
    {
      "inputs": [
        {
          "internalType": "contract IERC20",
          "name": "tokenCollateral",
          "type": "address"
        },
        {
          "internalType": "uint256",
          "name": "amountCollateral",
          "type": "uint256"
        },
        {
          "internalType": "uint256",
          "name": "amountBorrow",
          "type": "uint256"
        }
      ],
      "name": "addCollateralAndBorrow",
      "outputs": [],
      "stateMutability": "nonpayable",
      "type": "function"
    },
    {
      "inputs": [
        {
          "internalType": "uint256",
          "name": "amount",
          "type": "uint256"
        }
      ],
      "name": "borrow",
      "outputs": [],
      "stateMutability": "nonpayable",
      "type": "function"
    },
    {
      "inputs": [
        {
          "internalType": "uint256",
          "name": "_yearlyPercentInterest",
          "type": "uint256"
        },
        {
          "internalType": "uint256",
          "name": "_loanDefaultThresholdPercent",
          "type": "uint256"
        }
      ],
      "name": "changeLoanTerms",
      "outputs": [],
      "stateMutability": "nonpayable",
      "type": "function"
    },
    {
      "inputs": [
        {
          "internalType": "address",
          "name": "",
          "type": "address"
        }
      ],
      "name": "collaterabilityOfToken",
      "outputs": [
        {
          "internalType": "uint256",
          "name": "",
          "type": "uint256"
        }
      ],
      "stateMutability": "view",
      "type": "function"
    },
    {
      "inputs": [],
      "name": "coreDAOTreasury",
      "outputs": [
        {
          "internalType": "address",
          "name": "",
          "type": "address"
        }
      ],
      "stateMutability": "view",
      "type": "function"
    },
    {
      "inputs": [
        {
          "internalType": "address",
          "name": "",
          "type": "address"
        }
      ],
      "name": "debtorSummary",
      "outputs": [
        {
          "internalType": "uint256",
          "name": "timeLastBorrow",
          "type": "uint256"
        },
        {
          "internalType": "uint256",
          "name": "amountDAIBorrowed",
          "type": "uint256"
        }
      ],
      "stateMutability": "view",
      "type": "function"
    },
    {
      "inputs": [
        {
          "internalType": "address",
          "name": "token",
          "type": "address"
        },
        {
          "internalType": "uint256",
          "name": "newCollaterability",
          "type": "uint256"
        }
      ],
      "name": "editTokenCollaterability",
      "outputs": [],
      "stateMutability": "nonpayable",
      "type": "function"
    },
    {
      "inputs": [
        {
          "internalType": "address",
          "name": "_coreDAOTreasury",
          "type": "address"
        },
        {
          "internalType": "contract IERC20",
          "name": "_daoToken",
          "type": "address"
        },
        {
          "internalType": "uint256",
          "name": "_yearlyPercentInterest",
          "type": "uint256"
        },
        {
          "internalType": "uint256",
          "name": "_loanDefaultThresholdPercent",
          "type": "uint256"
        }
      ],
      "name": "initialize",
      "outputs": [],
      "stateMutability": "nonpayable",
      "type": "function"
    },
    {
      "inputs": [],
      "name": "loanDefaultThresholdPercent",
      "outputs": [
        {
          "internalType": "uint256",
          "name": "",
          "type": "uint256"
        }
      ],
      "stateMutability": "view",
      "type": "function"
    },
    {
      "inputs": [],
      "name": "owner",
      "outputs": [
        {
          "internalType": "address",
          "name": "",
          "type": "address"
        }
      ],
      "stateMutability": "view",
      "type": "function"
    },
    {
      "inputs": [],
      "name": "reclaimAllCollateral",
      "outputs": [],
      "stateMutability": "nonpayable",
      "type": "function"
    },
    {
      "inputs": [],
      "name": "renounceOwnership",
      "outputs": [],
      "stateMutability": "nonpayable",
      "type": "function"
    },
    {
      "inputs": [
        {
          "internalType": "contract IERC20",
          "name": "token",
          "type": "address"
        },
        {
          "internalType": "uint256",
          "name": "amount",
          "type": "uint256"
        }
      ],
      "name": "repayLoan",
      "outputs": [],
      "stateMutability": "nonpayable",
      "type": "function"
    },
    {
      "inputs": [
        {
          "internalType": "address",
          "name": "newOwner",
          "type": "address"
        }
      ],
      "name": "transferOwnership",
      "outputs": [],
      "stateMutability": "nonpayable",
      "type": "function"
    },
    {
      "inputs": [
        {
          "internalType": "address",
          "name": "user",
          "type": "address"
        }
      ],
      "name": "userCollateralValue",
      "outputs": [
        {
          "internalType": "uint256",
          "name": "collateral",
          "type": "uint256"
        }
      ],
      "stateMutability": "view",
      "type": "function"
    },
    {
      "inputs": [
        {
          "internalType": "address",
          "name": "user",
          "type": "address"
        }
      ],
      "name": "userTotalDebt",
      "outputs": [
        {
          "internalType": "uint256",
          "name": "",
          "type": "uint256"
        }
      ],
      "stateMutability": "view",
      "type": "function"
    },
    {
      "inputs": [],
      "name": "yearlyPercentInterest",
      "outputs": [
        {
          "internalType": "uint256",
          "name": "",
          "type": "uint256"
        }
      ],
      "stateMutability": "view",
      "type": "function"
    },
    {
      "stateMutability": "payable",
      "type": "receive"
    }
  ],
  "transactionHash": "0x3b48641e01fd6d6b2ae4defc39f494614e4fb641c61a7fc2c4c087bcddd10c3b",
  "args": [],
  "solcInputHash": "343aaa9a976c765679cea9a8ef416a74",
  "bytecode": "0x608060405234801561001057600080fd5b506118c0806100206000396000f3fe60806040526004361061012e5760003560e01c80637e900f5a116100ab578063c5ebeaec1161006f578063c5ebeaec1461036e578063e0bab4c41461038e578063eb990c59146103b6578063f2fde38b146103d6578063f981df5c146103f6578063ffa312721461043f57600080fd5b80637e900f5a146102d05780637f4aa665146102f05780638da5cb5b1461031057806393a595f51461032e578063b9f9c8f61461034e57600080fd5b8063600994f8116100f2578063600994f8146102455780636d75b9ee1461025b578063715018a61461027b578063724096e61461029057806377267ec3146102b057600080fd5b80632813a91a146101855780633ef5b5b4146101b857806340327ee7146101ce5780634478c5251461020e57806354ad72961461022557600080fd5b366101805760405162461bcd60e51b815260206004820152601a60248201527f434c656e64696e673a204554485f4e4f545f414343455054454400000000000060448201526064015b60405180910390fd5b600080fd5b34801561019157600080fd5b506101a56101a03660046115fa565b61046c565b6040519081526020015b60405180910390f35b3480156101c457600080fd5b506101a560695481565b3480156101da57600080fd5b506101f67362359ed7505efc61ff1d56fef82158ccaffa23d781565b6040516001600160a01b0390911681526020016101af565b34801561021a57600080fd5b506102236104a1565b005b34801561023157600080fd5b50610223610240366004611664565b6106b2565b34801561025157600080fd5b506101a560685481565b34801561026757600080fd5b50610223610276366004611664565b6106f8565b34801561028757600080fd5b5061022361071c565b34801561029c57600080fd5b506067546101f6906001600160a01b031681565b3480156102bc57600080fd5b506101a56102cb3660046115fa565b610752565b3480156102dc57600080fd5b506102236102eb3660046116b2565b61083d565b3480156102fc57600080fd5b5061022361030b366004611719565b610865565b34801561031c57600080fd5b506033546001600160a01b03166101f6565b34801561033a57600080fd5b50610223610349366004611664565b61089a565b34801561035a57600080fd5b506101a56103693660046115fa565b610ac5565b34801561037a57600080fd5b506102236103893660046116e7565b610bc9565b34801561039a57600080fd5b506101f6736b175474e89094c44da98b954eedeac495271d0f81565b3480156103c257600080fd5b506102236103d136600461161e565b610be9565b3480156103e257600080fd5b506102236103f13660046115fa565b610cc4565b34801561040257600080fd5b5061042a6104113660046115fa565b6065602052600090815260409020805460019091015482565b604080519283526020830191909152016101af565b34801561044b57600080fd5b506101a561045a3660046115fa565b60666020526000908152604090205481565b6001600160a01b03811660009081526065602052604081206001015461049183610752565b61049b91906117be565b92915050565b6000806104ad33610d5f565b91509150600081116105015760405162461bcd60e51b815260206004820152601a60248201527f434c656e64696e673a204e4f5448494e475f544f5f434c41494d0000000000006044820152606401610177565b811561054f5760405162461bcd60e51b815260206004820152601760248201527f434c656e64696e673a205354494c4c5f494e5f444542540000000000000000006044820152606401610177565b60005b33600090815260656020526040902060020154811015610684573360009081526065602052604081206002018054839081106105905761059061185f565b906000526020600020906002020160010154905060656000336001600160a01b03166001600160a01b0316815260200190815260200160002060020182815481106105dd576105dd61185f565b600091825260209091206002909102015460405163a9059cbb60e01b8152336004820152602481018390526001600160a01b039091169063a9059cbb90604401602060405180830381600087803b15801561063757600080fd5b505af115801561064b573d6000803e3d6000fd5b505050506040513d601f19601f8201168201806040525081019061066f9190611690565b5050808061067c9061182e565b915050610552565b5033600090815260656020526040812081815560018101829055906106ac60028301826115b4565b50505050565b6033546001600160a01b031633146106dc5760405162461bcd60e51b815260040161017790611789565b6001600160a01b03909116600090815260666020526040902055565b336000818152606560205260409020906107159082908585610dc9565b4290555050565b6033546001600160a01b031633146107465760405162461bcd60e51b815260040161017790611789565b6107506000610f30565b565b6001600160a01b038116600090815260656020908152604080832081516060810183528154815260018201548185015260028201805484518187028101870186528181528796939586019390929190879084015b828210156107ee576000848152602090819020604080518082019091526002850290910180546001600160a01b031682526001908101548284015290835290920191016107a6565b5050509152505080519091506000906108079042611817565b90506301e1338081606854846020015161082191906117f8565b61082b91906117f8565b61083591906117d6565b949350505050565b3360008181526065602052604090209061085a9082908686610dc9565b6106ac813384610f82565b6033546001600160a01b0316331461088f5760405162461bcd60e51b815260040161017790611789565b606891909155606955565b336000818152606560205260408120916108b390610d5f565b509050600081116108fb5760405162461bcd60e51b815260206004820152601260248201527110d3195b991a5b99ce881393d517d111509560721b6044820152606401610177565b6001600160a01b0384166000908152606660205260409020548061095a5760405162461bcd60e51b815260206004820152601660248201527510d3195b991a5b99ce881393d517d050d0d15415115160521b6044820152606401610177565b600061096682866117f8565b9050600061097333610752565b90508082116109c45760405162461bcd60e51b815260206004820152601d60248201527f434c656e64696e673a20494e53554646494349454e545f414d4f554e540000006044820152606401610177565b838211156109e4576109d683856117d6565b600060018701559550610a08565b808286600101546109f59190611817565b6109ff9190611817565b60018601554285555b610a1c6001600160a01b0388163388611120565b506067546001600160a01b038089169163a9059cbb9116610a3d86856117d6565b6040516001600160e01b031960e085901b1681526001600160a01b0390921660048301526024820152604401602060405180830381600087803b158015610a8357600080fd5b505af1158015610a97573d6000803e3d6000fd5b505050506040513d601f19601f82011682018060405250810190610abb9190611690565b5050505050505050565b6001600160a01b038116600090815260656020908152604080832060020180548251818502810185019093528083528493849084015b82821015610b43576000848152602090819020604080518082019091526002850290910180546001600160a01b03168252600190810154828401529083529092019101610afb565b50505050905060005b8151811015610bc2576000828281518110610b6957610b6961185f565b6020908102919091018101518082015181516001600160a01b0316600090815260669093526040832054919350610b9f916117f8565b9050610bab81866117be565b945050508080610bba9061182e565b915050610b4c565b5050919050565b33600081815260656020526040902090610be590829084610f82565b5050565b600054610100900460ff1680610c02575060005460ff16155b610c1e5760405162461bcd60e51b81526004016101779061173b565b600054610100900460ff16158015610c40576000805461ffff19166101011790555b610c48611309565b606780546001600160a01b0319166001600160a01b038781169190911790915560688490556069839055606660205261157c7fc520b33993e978efa57eb8bf721ea0e6e34a21392ead5e7fd3695797741b1103558416600090815260409020600190558015610cbd576000805461ff00191690555b5050505050565b6033546001600160a01b03163314610cee5760405162461bcd60e51b815260040161017790611789565b6001600160a01b038116610d535760405162461bcd60e51b815260206004820152602660248201527f4f776e61626c653a206e6577206f776e657220697320746865207a65726f206160448201526564647265737360d01b6064820152608401610177565b610d5c81610f30565b50565b600080610d6b8361046c565b9150610d7683610ac5565b9050610d828282611384565b15610dc4576001600160a01b03831660009081526065602052604081208181556001810182905590610db760028301826115b4565b5060009485945092505050565b915091565b610dd283610d5f565b50506001600160a01b038216736b175474e89094c44da98b954eedeac495271d0f1415610e355760405162461bcd60e51b8152602060048201526011602482015270434c656e64696e673a204e4f545f44414960781b6044820152606401610177565b6001600160a01b03821660009081526066602052604090205480610e945760405162461bcd60e51b815260206004820152601660248201527510d3195b991a5b99ce881393d517d050d0d15415115160521b6044820152606401610177565b610ea86001600160a01b0384168584611120565b50600081610eb586610752565b610ebf91906117d6565b905082811115610f115760405162461bcd60e51b815260206004820152601d60248201527f434c656e64696e673a20494e53554646494349454e545f414d4f554e540000006044820152606401610177565b610f1b8184611817565b9250610f288685856113a9565b505050505050565b603380546001600160a01b038381166001600160a01b0319831681179093556040519116919082907f8be0079c531659141344cd1fd0a4f28419497f9722a3daafe3b4186f6b6457e090600090a35050565b6000610f8d8361046c565b90506000610f9a84610ac5565b9050808211158015610fb35750610fb18282611384565b155b610ff75760405162461bcd60e51b815260206004820152601560248201527410d3195b991a5b99ce8813d5915497d11150951151605a1b6044820152606401610177565b60006110038383611817565b90508084111561107957600061101985856117be565b90508281111561106b5760405162461bcd60e51b815260206004820152601b60248201527f434c656e64696e673a20544f4f5f4d5543485f424f52524f57454400000000006044820152606401610177565b6110758184611817565b9450505b61108386856114cf565b60405163a9059cbb60e01b81526001600160a01b038616600482015260248101859052736b175474e89094c44da98b954eedeac495271d0f9063a9059cbb90604401602060405180830381600087803b1580156110df57600080fd5b505af11580156110f3573d6000803e3d6000fd5b505050506040513d601f19601f820116820180604052508101906111179190611690565b50505050505050565b6040516370a0823160e01b815230600482015260009081906001600160a01b038616906370a082319060240160206040518083038186803b15801561116457600080fd5b505afa158015611178573d6000803e3d6000fd5b505050506040513d601f19601f8201168201806040525081019061119c9190611700565b6040516323b872dd60e01b81526001600160a01b03868116600483015230602483015260448201869052919250908616906323b872dd90606401602060405180830381600087803b1580156111f057600080fd5b505af1158015611204573d6000803e3d6000fd5b505050506040513d601f19601f820116820180604052508101906112289190611690565b506040516370a0823160e01b81523060048201526000906001600160a01b038716906370a082319060240160206040518083038186803b15801561126b57600080fd5b505afa15801561127f573d6000803e3d6000fd5b505050506040513d601f19601f820116820180604052508101906112a39190611700565b90506112af8282611817565b92508383146113005760405162461bcd60e51b815260206004820152601b60248201527f434c656e64696e673a20554e535550504f525445445f544f4b454e00000000006044820152606401610177565b50509392505050565b600054610100900460ff1680611322575060005460ff16155b61133e5760405162461bcd60e51b81526004016101779061173b565b600054610100900460ff16158015611360576000805461ffff19166101011790555b6113686114ea565b611370611554565b8015610d5c576000805461ff001916905550565b60008160646069548561139791906117f8565b6113a191906117d6565b119392505050565b6000805b600285015481101561146f57836001600160a01b03168560020182815481106113d8576113d861185f565b60009182526020909120600290910201546001600160a01b0316141561145d578285600201828154811061140e5761140e61185f565b90600052602060002090600202016001015461142a91906117be565b85600201828154811061143f5761143f61185f565b9060005260206000209060020201600101819055506001915061146f565b806114678161182e565b9150506113ad565b50806106ac5750604080518082019091526001600160a01b039283168152602080820192835260029485018054600180820183556000928352929091209251950290910180546001600160a01b0319169490931693909317825551910155565b8082600101546114df91906117be565b600183015550429055565b600054610100900460ff1680611503575060005460ff16155b61151f5760405162461bcd60e51b81526004016101779061173b565b600054610100900460ff16158015611370576000805461ffff19166101011790558015610d5c576000805461ff001916905550565b600054610100900460ff168061156d575060005460ff16155b6115895760405162461bcd60e51b81526004016101779061173b565b600054610100900460ff161580156115ab576000805461ffff19166101011790555b61137033610f30565b5080546000825560020290600052602060002090810190610d5c91905b808211156115f65780546001600160a01b0319168155600060018201556002016115d1565b5090565b60006020828403121561160c57600080fd5b813561161781611875565b9392505050565b6000806000806080858703121561163457600080fd5b843561163f81611875565b9350602085013561164f81611875565b93969395505050506040820135916060013590565b6000806040838503121561167757600080fd5b823561168281611875565b946020939093013593505050565b6000602082840312156116a257600080fd5b8151801515811461161757600080fd5b6000806000606084860312156116c757600080fd5b83356116d281611875565b95602085013595506040909401359392505050565b6000602082840312156116f957600080fd5b5035919050565b60006020828403121561171257600080fd5b5051919050565b6000806040838503121561172c57600080fd5b50508035926020909101359150565b6020808252602e908201527f496e697469616c697a61626c653a20636f6e747261637420697320616c72656160408201526d191e481a5b9a5d1a585b1a5e995960921b606082015260800190565b6020808252818101527f4f776e61626c653a2063616c6c6572206973206e6f7420746865206f776e6572604082015260600190565b600082198211156117d1576117d1611849565b500190565b6000826117f357634e487b7160e01b600052601260045260246000fd5b500490565b600081600019048311821515161561181257611812611849565b500290565b60008282101561182957611829611849565b500390565b600060001982141561184257611842611849565b5060010190565b634e487b7160e01b600052601160045260246000fd5b634e487b7160e01b600052603260045260246000fd5b6001600160a01b0381168114610d5c57600080fdfea264697066735822122074aa3f2986ec16563c8c0c278c1e0451e6b4a557cb36ed048ea5d844cb3df10664736f6c63430008060033",
  "devdoc": {
    "author": "CVault Finance",
    "kind": "dev",
    "methods": {
      "owner()": {
        "details": "Returns the address of the current owner."
      },
      "renounceOwnership()": {
        "details": "Leaves the contract without owner. It will not be possible to call `onlyOwner` functions anymore. Can only be called by the current owner. NOTE: Renouncing ownership will leave the contract without an owner, thereby removing any functionality that is only available to the owner."
      },
      "transferOwnership(address)": {
        "details": "Transfers ownership of the contract to a new account (`newOwner`). Can only be called by the current owner."
      }
    },
    "stateVariables": {
      "_____gap": {
        "details": "upfront storage allocation for further upgrades"
      }
    },
    "title": "Lending contract for CORE and CoreDAO",
    "version": 1
  },
  "userdoc": {
    "kind": "user",
    "methods": {},
    "version": 1
  },
  "storageLayout": {
    "storage": [
      {
        "astId": 130,
        "contract": "contracts/CLending.sol:CLending",
        "label": "_initialized",
        "offset": 0,
        "slot": "0",
        "type": "t_bool"
      },
      {
        "astId": 133,
        "contract": "contracts/CLending.sol:CLending",
        "label": "_initializing",
        "offset": 1,
        "slot": "0",
        "type": "t_bool"
      },
      {
        "astId": 213,
        "contract": "contracts/CLending.sol:CLending",
        "label": "__gap",
        "offset": 0,
        "slot": "1",
        "type": "t_array(t_uint256)50_storage"
      },
      {
        "astId": 10,
        "contract": "contracts/CLending.sol:CLending",
        "label": "_owner",
        "offset": 0,
        "slot": "51",
        "type": "t_address"
      },
      {
        "astId": 123,
        "contract": "contracts/CLending.sol:CLending",
        "label": "__gap",
        "offset": 0,
        "slot": "52",
        "type": "t_array(t_uint256)49_storage"
      },
      {
        "astId": 7612,
        "contract": "contracts/CLending.sol:CLending",
        "label": "debtorSummary",
        "offset": 0,
        "slot": "101",
        "type": "t_mapping(t_address,t_struct(DebtorSummary)9035_storage)"
      },
      {
        "astId": 7616,
        "contract": "contracts/CLending.sol:CLending",
        "label": "collaterabilityOfToken",
        "offset": 0,
        "slot": "102",
        "type": "t_mapping(t_address,t_uint256)"
      },
      {
        "astId": 7618,
        "contract": "contracts/CLending.sol:CLending",
        "label": "coreDAOTreasury",
        "offset": 0,
        "slot": "103",
        "type": "t_address"
      },
      {
        "astId": 7620,
        "contract": "contracts/CLending.sol:CLending",
        "label": "yearlyPercentInterest",
        "offset": 0,
        "slot": "104",
        "type": "t_uint256"
      },
      {
        "astId": 7622,
        "contract": "contracts/CLending.sol:CLending",
        "label": "loanDefaultThresholdPercent",
        "offset": 0,
        "slot": "105",
        "type": "t_uint256"
      },
      {
        "astId": 7627,
        "contract": "contracts/CLending.sol:CLending",
        "label": "_____gap",
        "offset": 0,
        "slot": "106",
        "type": "t_array(t_uint256)52_storage"
      }
    ],
    "types": {
      "t_address": {
        "encoding": "inplace",
        "label": "address",
        "numberOfBytes": "20"
      },
      "t_array(t_struct(Collateral)9040_storage)dyn_storage": {
        "base": "t_struct(Collateral)9040_storage",
        "encoding": "dynamic_array",
        "label": "struct Collateral[]",
        "numberOfBytes": "32"
      },
      "t_array(t_uint256)49_storage": {
        "base": "t_uint256",
        "encoding": "inplace",
        "label": "uint256[49]",
        "numberOfBytes": "1568"
      },
      "t_array(t_uint256)50_storage": {
        "base": "t_uint256",
        "encoding": "inplace",
        "label": "uint256[50]",
        "numberOfBytes": "1600"
      },
      "t_array(t_uint256)52_storage": {
        "base": "t_uint256",
        "encoding": "inplace",
        "label": "uint256[52]",
        "numberOfBytes": "1664"
      },
      "t_bool": {
        "encoding": "inplace",
        "label": "bool",
        "numberOfBytes": "1"
      },
      "t_mapping(t_address,t_struct(DebtorSummary)9035_storage)": {
        "encoding": "mapping",
        "key": "t_address",
        "label": "mapping(address => struct DebtorSummary)",
        "numberOfBytes": "32",
        "value": "t_struct(DebtorSummary)9035_storage"
      },
      "t_mapping(t_address,t_uint256)": {
        "encoding": "mapping",
        "key": "t_address",
        "label": "mapping(address => uint256)",
        "numberOfBytes": "32",
        "value": "t_uint256"
      },
      "t_struct(Collateral)9040_storage": {
        "encoding": "inplace",
        "label": "struct Collateral",
        "members": [
          {
            "astId": 9037,
            "contract": "contracts/CLending.sol:CLending",
            "label": "collateralAddress",
            "offset": 0,
            "slot": "0",
            "type": "t_address"
          },
          {
            "astId": 9039,
            "contract": "contracts/CLending.sol:CLending",
            "label": "suppliedCollateral",
            "offset": 0,
            "slot": "1",
            "type": "t_uint256"
          }
        ],
        "numberOfBytes": "64"
      },
      "t_struct(DebtorSummary)9035_storage": {
        "encoding": "inplace",
        "label": "struct DebtorSummary",
        "members": [
          {
            "astId": 9028,
            "contract": "contracts/CLending.sol:CLending",
            "label": "timeLastBorrow",
            "offset": 0,
            "slot": "0",
            "type": "t_uint256"
          },
          {
            "astId": 9030,
            "contract": "contracts/CLending.sol:CLending",
            "label": "amountDAIBorrowed",
            "offset": 0,
            "slot": "1",
            "type": "t_uint256"
          },
          {
            "astId": 9034,
            "contract": "contracts/CLending.sol:CLending",
            "label": "collateral",
            "offset": 0,
            "slot": "2",
            "type": "t_array(t_struct(Collateral)9040_storage)dyn_storage"
          }
        ],
        "numberOfBytes": "96"
      },
      "t_uint256": {
        "encoding": "inplace",
        "label": "uint256",
        "numberOfBytes": "32"
      }
    }
  }
}