{
  "address": "0x851356ae760d987E095750cCeb3bC6014560891C",
  "abi": [
    {
      "anonymous": false,
      "inputs": [
        {
          "indexed": true,
          "internalType": "address",
          "name": "previousOwner",
          "type": "address"
        },
        {
          "indexed": true,
          "internalType": "address",
          "name": "newOwner",
          "type": "address"
        }
      ],
      "name": "OwnershipTransferred",
      "type": "event"
    },
    {
      "anonymous": false,
      "inputs": [
        {
          "indexed": false,
          "internalType": "address",
          "name": "toWho",
          "type": "address"
        },
        {
          "indexed": false,
          "internalType": "address",
          "name": "whatToken",
          "type": "address"
        },
        {
          "indexed": false,
          "internalType": "uint256",
          "name": "howMuch",
          "type": "uint256"
        },
        {
          "indexed": false,
          "internalType": "string",
          "name": "note",
          "type": "string"
        }
      ],
      "name": "Payment",
      "type": "event"
    },
    {
      "inputs": [],
      "name": "DAO_TOKENS_IN_LP1",
      "outputs": [
        {
          "internalType": "uint256",
          "name": "",
          "type": "uint256"
        }
      ],
      "stateMutability": "view",
      "type": "function"
    },
    {
      "inputs": [],
      "name": "DAO_TOKENS_IN_LP2",
      "outputs": [
        {
          "internalType": "uint256",
          "name": "",
          "type": "uint256"
        }
      ],
      "stateMutability": "view",
      "type": "function"
    },
    {
      "inputs": [],
      "name": "DAO_TOKENS_IN_LP3",
      "outputs": [
        {
          "internalType": "uint256",
          "name": "",
          "type": "uint256"
        }
      ],
      "stateMutability": "view",
      "type": "function"
    },
    {
      "inputs": [],
      "name": "LP1_VOUCHER",
      "outputs": [
        {
          "internalType": "contract IERC20",
          "name": "",
          "type": "address"
        }
      ],
      "stateMutability": "view",
      "type": "function"
    },
    {
      "inputs": [],
      "name": "LP2_VOUCHER",
      "outputs": [
        {
          "internalType": "contract IERC20",
          "name": "",
          "type": "address"
        }
      ],
      "stateMutability": "view",
      "type": "function"
    },
    {
      "inputs": [],
      "name": "LP3_VOUCHER",
      "outputs": [
        {
          "internalType": "contract IERC20",
          "name": "",
          "type": "address"
        }
      ],
      "stateMutability": "view",
      "type": "function"
    },
    {
      "inputs": [],
      "name": "coreDAO",
      "outputs": [
        {
          "internalType": "contract ICOREDAO",
          "name": "",
          "type": "address"
        }
      ],
      "stateMutability": "view",
      "type": "function"
    },
    {
      "inputs": [
        {
          "internalType": "contract ICOREDAO",
          "name": "_coreDAO",
          "type": "address"
        }
      ],
      "name": "initialize",
      "outputs": [],
      "stateMutability": "nonpayable",
      "type": "function"
    },
    {
      "inputs": [],
      "name": "owner",
      "outputs": [
        {
          "internalType": "address",
          "name": "",
          "type": "address"
        }
      ],
      "stateMutability": "view",
      "type": "function"
    },
    {
      "inputs": [
        {
          "internalType": "address payable",
          "name": "who",
          "type": "address"
        },
        {
          "internalType": "uint256",
          "name": "howManyTokens",
          "type": "uint256"
        },
        {
          "internalType": "contract IERC20",
          "name": "token",
          "type": "address"
        },
        {
          "internalType": "string",
          "name": "note",
          "type": "string"
        }
      ],
      "name": "pay",
      "outputs": [],
      "stateMutability": "nonpayable",
      "type": "function"
    },
    {
      "inputs": [],
      "name": "renounceOwnership",
      "outputs": [],
      "stateMutability": "nonpayable",
      "type": "function"
    },
    {
      "inputs": [
        {
          "internalType": "address",
          "name": "newOwner",
          "type": "address"
        }
      ],
      "name": "transferOwnership",
      "outputs": [],
      "stateMutability": "nonpayable",
      "type": "function"
    },
    {
      "inputs": [],
      "name": "wrapVouchers",
      "outputs": [],
      "stateMutability": "nonpayable",
      "type": "function"
    }
  ],
  "transactionHash": "0x6df5fe15bb9764bbe39c9889c7acfb562e40287fec6c3d1cd67385dcee8af795",
  "args": [],
  "solcInputHash": "343aaa9a976c765679cea9a8ef416a74",
  "bytecode": "0x608060405234801561001057600080fd5b50610ddd806100206000396000f3fe608060405234801561001057600080fd5b50600436106100ce5760003560e01c8063b99461491161008c578063d559b08211610066578063d559b0821461019f578063e2605dad146101ba578063f2fde38b146101c3578063f96f48da146101d657600080fd5b8063b994614914610156578063c494e3c914610171578063c4d66de81461018c57600080fd5b80622531f8146100d35780631a681c0d146100f55780634f0447781461010a57806363cfdc6d14610135578063715018a61461013d5780638da5cb5b14610145575b600080fd5b6100e2670cd64299613c800081565b6040519081526020015b60405180910390f35b610108610103366004610b19565b6101de565b005b60655461011d906001600160a01b031681565b6040516001600160a01b0390911681526020016100ec565b6100e2602d81565b61010861038f565b6033546001600160a01b031661011d565b61011d73f6dd68031a22c8a3f1e7a424ce8f43a1e1a3be3e81565b61011d73b8ee07b5ed2ff9dae6c504c9dee84151f844a59181565b61010861019a366004610af5565b6103c5565b61011d73ca00f8eef4ce1f9183e06fa25fe7872fedcf745681565b6100e26108ca81565b6101086101d1366004610af5565b610455565b6101086104f0565b6033546001600160a01b031633146102115760405162461bcd60e51b815260040161020890610cfa565b60405180910390fd5b6001600160a01b0382166102c8576000846001600160a01b03168460405160006040518083038185875af1925050503d806000811461026c576040519150601f19603f3d011682016040523d82523d6000602084013e610271565b606091505b50509050806102c25760405162461bcd60e51b815260206004820152601860248201527f434c656e64696e673a205041594d454e545f4641494c454400000000000000006044820152606401610208565b5061034c565b60405163a9059cbb60e01b81526001600160a01b0385811660048301526024820185905283169063a9059cbb90604401602060405180830381600087803b15801561031257600080fd5b505af1158015610326573d6000803e3d6000fd5b505050506040513d601f19601f8201168201806040525081019061034a9190610bf9565b505b7fd8b698ac671a4f14720b5e36de4daa40f05f109182b33b75e09276a122bb6532848385846040516103819493929190610c34565b60405180910390a150505050565b6033546001600160a01b031633146103b95760405162461bcd60e51b815260040161020890610cfa565b6103c3600061095e565b565b600054610100900460ff16806103de575060005460ff16155b6103fa5760405162461bcd60e51b815260040161020890610cac565b600054610100900460ff1615801561041c576000805461ffff19166101011790555b6104246109b0565b606580546001600160a01b0319166001600160a01b0384161790558015610451576000805461ff00191690555b5050565b6033546001600160a01b0316331461047f5760405162461bcd60e51b815260040161020890610cfa565b6001600160a01b0381166104e45760405162461bcd60e51b815260206004820152602660248201527f4f776e61626c653a206e6577206f776e657220697320746865207a65726f206160448201526564647265737360d01b6064820152608401610208565b6104ed8161095e565b50565b6040516370a0823160e01b815233600482015260009073f6dd68031a22c8a3f1e7a424ce8f43a1e1a3be3e906370a082319060240160206040518083038186803b15801561053d57600080fd5b505afa158015610551573d6000803e3d6000fd5b505050506040513d601f19601f820116820180604052508101906105759190610c1b565b6040516370a0823160e01b815233600482015290915060009073b8ee07b5ed2ff9dae6c504c9dee84151f844a591906370a082319060240160206040518083038186803b1580156105c557600080fd5b505afa1580156105d9573d6000803e3d6000fd5b505050506040513d601f19601f820116820180604052508101906105fd9190610c1b565b6040516370a0823160e01b815233600482015290915060009073ca00f8eef4ce1f9183e06fa25fe7872fedcf7456906370a082319060240160206040518083038186803b15801561064d57600080fd5b505afa158015610661573d6000803e3d6000fd5b505050506040513d601f19601f820116820180604052508101906106859190610c1b565b90506000831561073b576040516323b872dd60e01b8152336004820152600060248201526044810185905273f6dd68031a22c8a3f1e7a424ce8f43a1e1a3be3e906323b872dd90606401602060405180830381600087803b1580156106e957600080fd5b505af11580156106fd573d6000803e3d6000fd5b505050506040513d601f19601f820116820180604052508101906107219190610bf9565b5061072e6108ca85610d47565b6107389082610d2f565b90505b82156107f3576040516323b872dd60e01b8152336004820152600060248201526044810184905273b8ee07b5ed2ff9dae6c504c9dee84151f844a591906323b872dd90606401602060405180830381600087803b15801561079b57600080fd5b505af11580156107af573d6000803e3d6000fd5b505050506040513d601f19601f820116820180604052508101906107d39190610bf9565b506107e6670cd64299613c800084610d47565b6107f09082610d2f565b90505b81156108a4576040516323b872dd60e01b8152336004820152600060248201526044810183905273ca00f8eef4ce1f9183e06fa25fe7872fedcf7456906323b872dd90606401602060405180830381600087803b15801561085357600080fd5b505af1158015610867573d6000803e3d6000fd5b505050506040513d601f19601f8201168201806040525081019061088b9190610bf9565b50610897602d83610d47565b6108a19082610d2f565b90505b600081116108f45760405162461bcd60e51b815260206004820152601960248201527f434c656e64696e673a204e4f5448494e475f544f5f57524150000000000000006044820152606401610208565b60655460405163219e412d60e21b8152336004820152602481018390526001600160a01b039091169063867904b490604401600060405180830381600087803b15801561094057600080fd5b505af1158015610954573d6000803e3d6000fd5b5050505050505050565b603380546001600160a01b038381166001600160a01b0319831681179093556040519116919082907f8be0079c531659141344cd1fd0a4f28419497f9722a3daafe3b4186f6b6457e090600090a35050565b600054610100900460ff16806109c9575060005460ff16155b6109e55760405162461bcd60e51b815260040161020890610cac565b600054610100900460ff16158015610a07576000805461ffff19166101011790555b610a0f610a2b565b610a17610a95565b80156104ed576000805461ff001916905550565b600054610100900460ff1680610a44575060005460ff16155b610a605760405162461bcd60e51b815260040161020890610cac565b600054610100900460ff16158015610a17576000805461ffff191661010117905580156104ed576000805461ff001916905550565b600054610100900460ff1680610aae575060005460ff16155b610aca5760405162461bcd60e51b815260040161020890610cac565b600054610100900460ff16158015610aec576000805461ffff19166101011790555b610a173361095e565b600060208284031215610b0757600080fd5b8135610b1281610d92565b9392505050565b60008060008060808587031215610b2f57600080fd5b8435610b3a81610d92565b9350602085013592506040850135610b5181610d92565b9150606085013567ffffffffffffffff80821115610b6e57600080fd5b818701915087601f830112610b8257600080fd5b813581811115610b9457610b94610d7c565b604051601f8201601f19908116603f01168101908382118183101715610bbc57610bbc610d7c565b816040528281528a6020848701011115610bd557600080fd5b82602086016020830137600060208483010152809550505050505092959194509250565b600060208284031215610c0b57600080fd5b81518015158114610b1257600080fd5b600060208284031215610c2d57600080fd5b5051919050565b600060018060a01b038087168352602081871681850152856040850152608060608501528451915081608085015260005b82811015610c815785810182015185820160a001528101610c65565b82811115610c9357600060a084870101525b5050601f01601f19169190910160a00195945050505050565b6020808252602e908201527f496e697469616c697a61626c653a20636f6e747261637420697320616c72656160408201526d191e481a5b9a5d1a585b1a5e995960921b606082015260800190565b6020808252818101527f4f776e61626c653a2063616c6c6572206973206e6f7420746865206f776e6572604082015260600190565b60008219821115610d4257610d42610d66565b500190565b6000816000190483118215151615610d6157610d61610d66565b500290565b634e487b7160e01b600052601160045260246000fd5b634e487b7160e01b600052604160045260246000fd5b6001600160a01b03811681146104ed57600080fdfea26469706673582212203f2a6607a849c9316b147757a1463866ac6b69a8247451e85826945f3c18b26064736f6c63430008060033",
  "devdoc": {
    "author": "CVault Finance",
    "kind": "dev",
    "methods": {
      "owner()": {
        "details": "Returns the address of the current owner."
      },
      "renounceOwnership()": {
        "details": "Leaves the contract without owner. It will not be possible to call `onlyOwner` functions anymore. Can only be called by the current owner. NOTE: Renouncing ownership will leave the contract without an owner, thereby removing any functionality that is only available to the owner."
      },
      "transferOwnership(address)": {
        "details": "Transfers ownership of the contract to a new account (`newOwner`). Can only be called by the current owner."
      }
    },
    "title": "Protocol treasury contract",
    "version": 1
  },
  "userdoc": {
    "kind": "user",
    "methods": {},
    "version": 1
  },
  "storageLayout": {
    "storage": [
      {
        "astId": 130,
        "contract": "contracts/CoreDAOTreasury.sol:CoreDAOTreasury",
        "label": "_initialized",
        "offset": 0,
        "slot": "0",
        "type": "t_bool"
      },
      {
        "astId": 133,
        "contract": "contracts/CoreDAOTreasury.sol:CoreDAOTreasury",
        "label": "_initializing",
        "offset": 1,
        "slot": "0",
        "type": "t_bool"
      },
      {
        "astId": 213,
        "contract": "contracts/CoreDAOTreasury.sol:CoreDAOTreasury",
        "label": "__gap",
        "offset": 0,
        "slot": "1",
        "type": "t_array(t_uint256)50_storage"
      },
      {
        "astId": 10,
        "contract": "contracts/CoreDAOTreasury.sol:CoreDAOTreasury",
        "label": "_owner",
        "offset": 0,
        "slot": "51",
        "type": "t_address"
      },
      {
        "astId": 123,
        "contract": "contracts/CoreDAOTreasury.sol:CoreDAOTreasury",
        "label": "__gap",
        "offset": 0,
        "slot": "52",
        "type": "t_array(t_uint256)49_storage"
      },
      {
        "astId": 8587,
        "contract": "contracts/CoreDAOTreasury.sol:CoreDAOTreasury",
        "label": "coreDAO",
        "offset": 0,
        "slot": "101",
        "type": "t_contract(ICOREDAO)8554"
      }
    ],
    "types": {
      "t_address": {
        "encoding": "inplace",
        "label": "address",
        "numberOfBytes": "20"
      },
      "t_array(t_uint256)49_storage": {
        "base": "t_uint256",
        "encoding": "inplace",
        "label": "uint256[49]",
        "numberOfBytes": "1568"
      },
      "t_array(t_uint256)50_storage": {
        "base": "t_uint256",
        "encoding": "inplace",
        "label": "uint256[50]",
        "numberOfBytes": "1600"
      },
      "t_bool": {
        "encoding": "inplace",
        "label": "bool",
        "numberOfBytes": "1"
      },
      "t_contract(ICOREDAO)8554": {
        "encoding": "inplace",
        "label": "contract ICOREDAO",
        "numberOfBytes": "20"
      },
      "t_uint256": {
        "encoding": "inplace",
        "label": "uint256",
        "numberOfBytes": "32"
      }
    }
  }
}