{
  "address": "0x8f86403A4DE0BB5791fa46B8e795C547942fE4Cf",
  "abi": [
    {
      "inputs": [
        {
          "internalType": "contract ERC20Votes",
          "name": "_token",
          "type": "address"
        },
        {
          "internalType": "contract TimelockController",
          "name": "_timelock",
          "type": "address"
        }
      ],
      "stateMutability": "nonpayable",
      "type": "constructor"
    },
    {
      "anonymous": false,
      "inputs": [
        {
          "indexed": false,
          "internalType": "uint256",
          "name": "proposalId",
          "type": "uint256"
        }
      ],
      "name": "ProposalCanceled",
      "type": "event"
    },
    {
      "anonymous": false,
      "inputs": [
        {
          "indexed": false,
          "internalType": "uint256",
          "name": "proposalId",
          "type": "uint256"
        },
        {
          "indexed": false,
          "internalType": "address",
          "name": "proposer",
          "type": "address"
        },
        {
          "indexed": false,
          "internalType": "address[]",
          "name": "targets",
          "type": "address[]"
        },
        {
          "indexed": false,
          "internalType": "uint256[]",
          "name": "values",
          "type": "uint256[]"
        },
        {
          "indexed": false,
          "internalType": "string[]",
          "name": "signatures",
          "type": "string[]"
        },
        {
          "indexed": false,
          "internalType": "bytes[]",
          "name": "calldatas",
          "type": "bytes[]"
        },
        {
          "indexed": false,
          "internalType": "uint256",
          "name": "startBlock",
          "type": "uint256"
        },
        {
          "indexed": false,
          "internalType": "uint256",
          "name": "endBlock",
          "type": "uint256"
        },
        {
          "indexed": false,
          "internalType": "string",
          "name": "description",
          "type": "string"
        }
      ],
      "name": "ProposalCreated",
      "type": "event"
    },
    {
      "anonymous": false,
      "inputs": [
        {
          "indexed": false,
          "internalType": "uint256",
          "name": "proposalId",
          "type": "uint256"
        }
      ],
      "name": "ProposalExecuted",
      "type": "event"
    },
    {
      "anonymous": false,
      "inputs": [
        {
          "indexed": false,
          "internalType": "uint256",
          "name": "proposalId",
          "type": "uint256"
        },
        {
          "indexed": false,
          "internalType": "uint256",
          "name": "eta",
          "type": "uint256"
        }
      ],
      "name": "ProposalQueued",
      "type": "event"
    },
    {
      "anonymous": false,
      "inputs": [
        {
          "indexed": false,
          "internalType": "uint256",
          "name": "oldQuorumNumerator",
          "type": "uint256"
        },
        {
          "indexed": false,
          "internalType": "uint256",
          "name": "newQuorumNumerator",
          "type": "uint256"
        }
      ],
      "name": "QuorumNumeratorUpdated",
      "type": "event"
    },
    {
      "anonymous": false,
      "inputs": [
        {
          "indexed": false,
          "internalType": "address",
          "name": "oldTimelock",
          "type": "address"
        },
        {
          "indexed": false,
          "internalType": "address",
          "name": "newTimelock",
          "type": "address"
        }
      ],
      "name": "TimelockChange",
      "type": "event"
    },
    {
      "anonymous": false,
      "inputs": [
        {
          "indexed": true,
          "internalType": "address",
          "name": "voter",
          "type": "address"
        },
        {
          "indexed": false,
          "internalType": "uint256",
          "name": "proposalId",
          "type": "uint256"
        },
        {
          "indexed": false,
          "internalType": "uint8",
          "name": "support",
          "type": "uint8"
        },
        {
          "indexed": false,
          "internalType": "uint256",
          "name": "weight",
          "type": "uint256"
        },
        {
          "indexed": false,
          "internalType": "string",
          "name": "reason",
          "type": "string"
        }
      ],
      "name": "VoteCast",
      "type": "event"
    },
    {
      "inputs": [],
      "name": "BALLOT_TYPEHASH",
      "outputs": [
        {
          "internalType": "bytes32",
          "name": "",
          "type": "bytes32"
        }
      ],
      "stateMutability": "view",
      "type": "function"
    },
    {
      "inputs": [],
      "name": "COUNTING_MODE",
      "outputs": [
        {
          "internalType": "string",
          "name": "",
          "type": "string"
        }
      ],
      "stateMutability": "pure",
      "type": "function"
    },
    {
      "inputs": [
        {
          "internalType": "uint256",
          "name": "proposalId",
          "type": "uint256"
        },
        {
          "internalType": "uint8",
          "name": "support",
          "type": "uint8"
        }
      ],
      "name": "castVote",
      "outputs": [
        {
          "internalType": "uint256",
          "name": "",
          "type": "uint256"
        }
      ],
      "stateMutability": "nonpayable",
      "type": "function"
    },
    {
      "inputs": [
        {
          "internalType": "uint256",
          "name": "proposalId",
          "type": "uint256"
        },
        {
          "internalType": "uint8",
          "name": "support",
          "type": "uint8"
        },
        {
          "internalType": "uint8",
          "name": "v",
          "type": "uint8"
        },
        {
          "internalType": "bytes32",
          "name": "r",
          "type": "bytes32"
        },
        {
          "internalType": "bytes32",
          "name": "s",
          "type": "bytes32"
        }
      ],
      "name": "castVoteBySig",
      "outputs": [
        {
          "internalType": "uint256",
          "name": "",
          "type": "uint256"
        }
      ],
      "stateMutability": "nonpayable",
      "type": "function"
    },
    {
      "inputs": [
        {
          "internalType": "uint256",
          "name": "proposalId",
          "type": "uint256"
        },
        {
          "internalType": "uint8",
          "name": "support",
          "type": "uint8"
        },
        {
          "internalType": "string",
          "name": "reason",
          "type": "string"
        }
      ],
      "name": "castVoteWithReason",
      "outputs": [
        {
          "internalType": "uint256",
          "name": "",
          "type": "uint256"
        }
      ],
      "stateMutability": "nonpayable",
      "type": "function"
    },
    {
      "inputs": [
        {
          "internalType": "address[]",
          "name": "targets",
          "type": "address[]"
        },
        {
          "internalType": "uint256[]",
          "name": "values",
          "type": "uint256[]"
        },
        {
          "internalType": "bytes[]",
          "name": "calldatas",
          "type": "bytes[]"
        },
        {
          "internalType": "bytes32",
          "name": "descriptionHash",
          "type": "bytes32"
        }
      ],
      "name": "execute",
      "outputs": [
        {
          "internalType": "uint256",
          "name": "",
          "type": "uint256"
        }
      ],
      "stateMutability": "payable",
      "type": "function"
    },
    {
      "inputs": [
        {
          "internalType": "address",
          "name": "account",
          "type": "address"
        },
        {
          "internalType": "uint256",
          "name": "blockNumber",
          "type": "uint256"
        }
      ],
      "name": "getVotes",
      "outputs": [
        {
          "internalType": "uint256",
          "name": "",
          "type": "uint256"
        }
      ],
      "stateMutability": "view",
      "type": "function"
    },
    {
      "inputs": [
        {
          "internalType": "uint256",
          "name": "proposalId",
          "type": "uint256"
        },
        {
          "internalType": "address",
          "name": "account",
          "type": "address"
        }
      ],
      "name": "hasVoted",
      "outputs": [
        {
          "internalType": "bool",
          "name": "",
          "type": "bool"
        }
      ],
      "stateMutability": "view",
      "type": "function"
    },
    {
      "inputs": [
        {
          "internalType": "address[]",
          "name": "targets",
          "type": "address[]"
        },
        {
          "internalType": "uint256[]",
          "name": "values",
          "type": "uint256[]"
        },
        {
          "internalType": "bytes[]",
          "name": "calldatas",
          "type": "bytes[]"
        },
        {
          "internalType": "bytes32",
          "name": "descriptionHash",
          "type": "bytes32"
        }
      ],
      "name": "hashProposal",
      "outputs": [
        {
          "internalType": "uint256",
          "name": "",
          "type": "uint256"
        }
      ],
      "stateMutability": "pure",
      "type": "function"
    },
    {
      "inputs": [],
      "name": "name",
      "outputs": [
        {
          "internalType": "string",
          "name": "",
          "type": "string"
        }
      ],
      "stateMutability": "view",
      "type": "function"
    },
    {
      "inputs": [
        {
          "internalType": "uint256",
          "name": "proposalId",
          "type": "uint256"
        }
      ],
      "name": "proposalDeadline",
      "outputs": [
        {
          "internalType": "uint256",
          "name": "",
          "type": "uint256"
        }
      ],
      "stateMutability": "view",
      "type": "function"
    },
    {
      "inputs": [
        {
          "internalType": "uint256",
          "name": "proposalId",
          "type": "uint256"
        }
      ],
      "name": "proposalEta",
      "outputs": [
        {
          "internalType": "uint256",
          "name": "",
          "type": "uint256"
        }
      ],
      "stateMutability": "view",
      "type": "function"
    },
    {
      "inputs": [
        {
          "internalType": "uint256",
          "name": "proposalId",
          "type": "uint256"
        }
      ],
      "name": "proposalSnapshot",
      "outputs": [
        {
          "internalType": "uint256",
          "name": "",
          "type": "uint256"
        }
      ],
      "stateMutability": "view",
      "type": "function"
    },
    {
      "inputs": [
        {
          "internalType": "uint256",
          "name": "proposalId",
          "type": "uint256"
        }
      ],
      "name": "proposalVotes",
      "outputs": [
        {
          "internalType": "uint256",
          "name": "againstVotes",
          "type": "uint256"
        },
        {
          "internalType": "uint256",
          "name": "forVotes",
          "type": "uint256"
        },
        {
          "internalType": "uint256",
          "name": "abstainVotes",
          "type": "uint256"
        }
      ],
      "stateMutability": "view",
      "type": "function"
    },
    {
      "inputs": [
        {
          "internalType": "address[]",
          "name": "targets",
          "type": "address[]"
        },
        {
          "internalType": "uint256[]",
          "name": "values",
          "type": "uint256[]"
        },
        {
          "internalType": "bytes[]",
          "name": "calldatas",
          "type": "bytes[]"
        },
        {
          "internalType": "string",
          "name": "description",
          "type": "string"
        }
      ],
      "name": "propose",
      "outputs": [
        {
          "internalType": "uint256",
          "name": "",
          "type": "uint256"
        }
      ],
      "stateMutability": "nonpayable",
      "type": "function"
    },
    {
      "inputs": [
        {
          "internalType": "address[]",
          "name": "targets",
          "type": "address[]"
        },
        {
          "internalType": "uint256[]",
          "name": "values",
          "type": "uint256[]"
        },
        {
          "internalType": "bytes[]",
          "name": "calldatas",
          "type": "bytes[]"
        },
        {
          "internalType": "bytes32",
          "name": "descriptionHash",
          "type": "bytes32"
        }
      ],
      "name": "queue",
      "outputs": [
        {
          "internalType": "uint256",
          "name": "",
          "type": "uint256"
        }
      ],
      "stateMutability": "nonpayable",
      "type": "function"
    },
    {
      "inputs": [
        {
          "internalType": "uint256",
          "name": "blockNumber",
          "type": "uint256"
        }
      ],
      "name": "quorum",
      "outputs": [
        {
          "internalType": "uint256",
          "name": "",
          "type": "uint256"
        }
      ],
      "stateMutability": "view",
      "type": "function"
    },
    {
      "inputs": [],
      "name": "quorumDenominator",
      "outputs": [
        {
          "internalType": "uint256",
          "name": "",
          "type": "uint256"
        }
      ],
      "stateMutability": "view",
      "type": "function"
    },
    {
      "inputs": [],
      "name": "quorumNumerator",
      "outputs": [
        {
          "internalType": "uint256",
          "name": "",
          "type": "uint256"
        }
      ],
      "stateMutability": "view",
      "type": "function"
    },
    {
      "inputs": [
        {
          "internalType": "uint256",
          "name": "proposalId",
          "type": "uint256"
        }
      ],
      "name": "state",
      "outputs": [
        {
          "internalType": "enum IGovernor.ProposalState",
          "name": "",
          "type": "uint8"
        }
      ],
      "stateMutability": "view",
      "type": "function"
    },
    {
      "inputs": [
        {
          "internalType": "bytes4",
          "name": "interfaceId",
          "type": "bytes4"
        }
      ],
      "name": "supportsInterface",
      "outputs": [
        {
          "internalType": "bool",
          "name": "",
          "type": "bool"
        }
      ],
      "stateMutability": "view",
      "type": "function"
    },
    {
      "inputs": [],
      "name": "timelock",
      "outputs": [
        {
          "internalType": "address",
          "name": "",
          "type": "address"
        }
      ],
      "stateMutability": "view",
      "type": "function"
    },
    {
      "inputs": [],
      "name": "token",
      "outputs": [
        {
          "internalType": "contract ERC20Votes",
          "name": "",
          "type": "address"
        }
      ],
      "stateMutability": "view",
      "type": "function"
    },
    {
      "inputs": [
        {
          "internalType": "uint256",
          "name": "newQuorumNumerator",
          "type": "uint256"
        }
      ],
      "name": "updateQuorumNumerator",
      "outputs": [],
      "stateMutability": "nonpayable",
      "type": "function"
    },
    {
      "inputs": [
        {
          "internalType": "contract TimelockController",
          "name": "newTimelock",
          "type": "address"
        }
      ],
      "name": "updateTimelock",
      "outputs": [],
      "stateMutability": "nonpayable",
      "type": "function"
    },
    {
      "inputs": [],
      "name": "version",
      "outputs": [
        {
          "internalType": "string",
          "name": "",
          "type": "string"
        }
      ],
      "stateMutability": "view",
      "type": "function"
    },
    {
      "inputs": [],
      "name": "votingDelay",
      "outputs": [
        {
          "internalType": "uint256",
          "name": "",
          "type": "uint256"
        }
      ],
      "stateMutability": "pure",
      "type": "function"
    },
    {
      "inputs": [],
      "name": "votingPeriod",
      "outputs": [
        {
          "internalType": "uint256",
          "name": "",
          "type": "uint256"
        }
      ],
      "stateMutability": "pure",
      "type": "function"
    }
  ],
  "transactionHash": "0x3ae3364a3e140ce9381dc3e4dd9e2a7d3f3b7e9cff43bba28a2241a4cfce74e1",
  "args": [
    "0x95401dc811bb5740090279Ba06cfA8fcF6113778",
    "0x0E801D84Fa97b50751Dbf25036d067dCf18858bF"
  ],
  "solcInputHash": "343aaa9a976c765679cea9a8ef416a74",
  "bytecode": "0x6101406040523480156200001257600080fd5b5060405162002b1d38038062002b1d833981016040819052620000359162000333565b806004836040518060400160405280600c81526020016b21b7b932a3b7bb32b93737b960a11b815250806200006f6200013c60201b60201c565b815160209283012081519183019190912060c082815260e08290524660a0818152604080517f8b73c3c69bb8fe3d512ecc4cf759cc79239f7b179b0ffacaa9a75d522b39400f8189018190528183019790975260608101959095526080808601939093523085830152805180860390920182529390920190925280519084012090526101005281516200010991600091908401906200028d565b505060601b6001600160601b03191661012052620001278162000157565b50620001338162000224565b505050620003c8565b6040805180820190915260018152603160f81b602082015290565b6064811115620001df5760405162461bcd60e51b815260206004820152604360248201527f476f7665726e6f72566f74657351756f72756d4672616374696f6e3a2071756f60448201527f72756d4e756d657261746f72206f7665722071756f72756d44656e6f6d696e616064820152623a37b960e91b608482015260a40160405180910390fd5b600380549082905560408051828152602081018490527f0553476bf02ef2726e8ce5ced78d63e26e602e4a2257b1f559418e24b4633997910160405180910390a15050565b600454604080516001600160a01b03928316815291831660208301527f08f74ea46ef7894f65eabfb5e6e695de773a000b47c529ab559178069b226401910160405180910390a1600480546001600160a01b0319166001600160a01b0392909216919091179055565b8280546200029b9062000372565b90600052602060002090601f016020900481019282620002bf57600085556200030a565b82601f10620002da57805160ff19168380011785556200030a565b828001600101855582156200030a579182015b828111156200030a578251825591602001919060010190620002ed565b50620003189291506200031c565b5090565b5b808211156200031857600081556001016200031d565b600080604083850312156200034757600080fd5b82516200035481620003af565b60208401519092506200036781620003af565b809150509250929050565b600181811c908216806200038757607f821691505b60208210811415620003a957634e487b7160e01b600052602260045260246000fd5b50919050565b6001600160a01b0381168114620003c557600080fd5b50565b60805160a05160c05160e051610100516101205160601c6126f462000429600039600081816105dd0152818161134401526113dd01526000611571015260006115c00152600061159b0152600061151f0152600061154801526126f46000f3fe6080604052600436106101b75760003560e01c80637b3c71d3116100ec578063c59057e41161008a578063deaaa7cc11610064578063deaaa7cc14610557578063eb9019d41461058b578063f8ce560a146105ab578063fc0c546a146105cb57600080fd5b8063c59057e4146104bf578063d33219b4146104df578063dd4e2ba51461051157600080fd5b8063a7713a70116100c6578063a7713a701461044a578063a890c9101461045f578063ab58fb8e1461047f578063c01f9e371461049f57600080fd5b80637b3c71d3146103f65780637d5e81e21461041657806397c3d3341461043657600080fd5b80633932abb11161015957806343859632116101335780634385963214610308578063544ffc9c1461035257806354fd4d50146103ac57806356781388146103d657600080fd5b80633932abb1146102a75780633bccf4fd146102bb5780633e4f49e6146102db57600080fd5b806306fdde031161019557806306fdde0314610232578063160cbed7146102545780632656227d146102745780632d63f6931461028757600080fd5b806301ffc9a7146101bc57806302a251a3146101f157806306f3f9e614610210575b600080fd5b3480156101c857600080fd5b506101dc6101d7366004612000565b6105ff565b60405190151581526020015b60405180910390f35b3480156101fd57600080fd5b5061b2fa5b6040519081526020016101e8565b34801561021c57600080fd5b5061023061022b366004612047565b610610565b005b34801561023e57600080fd5b50610247610684565b6040516101e891906123af565b34801561026057600080fd5b5061020261026f366004611e76565b610716565b610202610282366004611e76565b61093e565b34801561029357600080fd5b506102026102a2366004612047565b610a11565b3480156102b357600080fd5b506001610202565b3480156102c757600080fd5b506102026102d6366004612142565b610a48565b3480156102e757600080fd5b506102fb6102f6366004612047565b610adc565b6040516101e89190612387565b34801561031457600080fd5b506101dc610323366004612060565b60008281526002602090815260408083206001600160a01b038516845260030190915290205460ff1692915050565b34801561035e57600080fd5b5061039161036d366004612047565b60008181526002602081905260409091208054600182015491909201549193909250565b604080519384526020840192909252908201526060016101e8565b3480156103b857600080fd5b506040805180820190915260018152603160f81b6020820152610247565b3480156103e257600080fd5b506102026103f1366004612090565b610ae7565b34801561040257600080fd5b506102026104113660046120bc565b610b10565b34801561042257600080fd5b50610202610431366004611f05565b610b62565b34801561044257600080fd5b506064610202565b34801561045657600080fd5b50600354610202565b34801561046b57600080fd5b5061023061047a36600461202a565b610b79565b34801561048b57600080fd5b5061020261049a366004612047565b610be5565b3480156104ab57600080fd5b506102026104ba366004612047565b610c89565b3480156104cb57600080fd5b506102026104da366004611e76565b610cb8565b3480156104eb57600080fd5b506004546001600160a01b03165b6040516001600160a01b0390911681526020016101e8565b34801561051d57600080fd5b506040805180820190915260208082527f737570706f72743d627261766f2671756f72756d3d666f722c6162737461696e90820152610247565b34801561056357600080fd5b506102027f150214d74d59b7d1e90c73fc22ef3d991dd0a76b046543d4d80ab92d2a50328f81565b34801561059757600080fd5b506102026105a6366004611e4a565b610cf2565b3480156105b757600080fd5b506102026105c6366004612047565b610cfe565b3480156105d757600080fd5b506104f97f000000000000000000000000000000000000000000000000000000000000000081565b600061060a82610d09565b92915050565b610618610d2e565b6001600160a01b0316336001600160a01b0316146106785760405162461bcd60e51b8152602060048201526018602482015277476f7665726e6f723a206f6e6c79476f7665726e616e636560401b60448201526064015b60405180910390fd5b61068181610d47565b50565b60606000805461069390612632565b80601f01602080910402602001604051908101604052809291908181526020018280546106bf90612632565b801561070c5780601f106106e15761010080835404028352916020019161070c565b820191906000526020600020905b8154815290600101906020018083116106ef57829003601f168201915b5050505050905090565b60008061072586868686610cb8565b9050600461073282610adc565b60078111156107435761074361267d565b146107605760405162461bcd60e51b815260040161066f90612403565b6000600460009054906101000a90046001600160a01b03166001600160a01b031663f27a0c926040518163ffffffff1660e01b815260040160206040518083038186803b1580156107b057600080fd5b505afa1580156107c4573d6000803e3d6000fd5b505050506040513d601f19601f820116820180604052508101906107e89190611fe7565b6004805460405163b1c5f42760e01b81529293506001600160a01b03169163b1c5f42791610821918b918b918b916000918c91016122e1565b60206040518083038186803b15801561083957600080fd5b505afa15801561084d573d6000803e3d6000fd5b505050506040513d601f19601f820116820180604052508101906108719190611fe7565b600083815260056020526040808220929092556004805492516308f2a0bb60e41b81526001600160a01b0390931692638f2a0bb0926108bc928c928c928c9290918c918a910161232f565b600060405180830381600087803b1580156108d657600080fd5b505af11580156108ea573d6000803e3d6000fd5b505050507f9a2e42fd6722813d69113e7d0079d3d940171428df7373df9c7f7617cfda289282824261091c91906125ae565b6040805192835260208301919091520160405180910390a15095945050505050565b60008061094d86868686610cb8565b9050600061095a82610adc565b905060048160078111156109705761097061267d565b148061098d5750600581600781111561098b5761098b61267d565b145b6109a95760405162461bcd60e51b815260040161066f90612403565b600082815260016020818152604092839020600201805460ff191690921790915590518381527f712ae1383f79ac853f8d882153778e0260ef8f03b504e2866e0593e04d2b291f910160405180910390a1610a078288888888610e0f565b5095945050505050565b60008181526001602090815260408083208151928301909152546001600160401b0316908190525b6001600160401b031692915050565b604080517f150214d74d59b7d1e90c73fc22ef3d991dd0a76b046543d4d80ab92d2a50328f602082015290810186905260ff851660608201526000908190610ab490610aac9060800160405160208183030381529060405280519060200120610e23565b868686610e71565b9050610ad187828860405180602001604052806000815250610e8f565b979650505050505050565b600061060a82610f9a565b600080339050610b0884828560405180602001604052806000815250610e8f565b949350505050565b600080339050610b5886828787878080601f016020809104026020016040519081016040528093929190818152602001838380828437600092019190915250610e8f92505050565b9695505050505050565b6000610b7085858585611075565b95945050505050565b610b81610d2e565b6001600160a01b0316336001600160a01b031614610bdc5760405162461bcd60e51b8152602060048201526018602482015277476f7665726e6f723a206f6e6c79476f7665726e616e636560401b604482015260640161066f565b610681816112b2565b6004805460008381526005602052604080822054905163d45c443560e01b8152938401529182916001600160a01b03169063d45c44359060240160206040518083038186803b158015610c3757600080fd5b505afa158015610c4b573d6000803e3d6000fd5b505050506040513d601f19601f82011682018060405250810190610c6f9190611fe7565b905080600114610c7f5780610c82565b60005b9392505050565b60008181526001602081815260408084208151928301909152909101546001600160401b031690819052610a39565b600084848484604051602001610cd19493929190612296565b60408051601f19818403018152919052805160209091012095945050505050565b6000610c82838361131b565b600061060a826113c0565b60006001600160e01b03198216636e665ced60e01b148061060a575061060a82611473565b6000610d426004546001600160a01b031690565b905090565b6064811115610dca5760405162461bcd60e51b815260206004820152604360248201527f476f7665726e6f72566f74657351756f72756d4672616374696f6e3a2071756f60448201527f72756d4e756d657261746f72206f7665722071756f72756d44656e6f6d696e616064820152623a37b960e91b608482015260a40161066f565b600380549082905560408051828152602081018490527f0553476bf02ef2726e8ce5ced78d63e26e602e4a2257b1f559418e24b4633997910160405180910390a15050565b610e1c85858585856114a8565b5050505050565b600061060a610e3061151b565b8360405161190160f01b6020820152602281018390526042810182905260009060620160405160208183030381529060405280519060200120905092915050565b6000806000610e828787878761160e565b91509150610a07816116fb565b6000848152600160208190526040822090610ea987610adc565b6007811115610eba57610eba61267d565b14610f135760405162461bcd60e51b815260206004820152602360248201527f476f7665726e6f723a20766f7465206e6f742063757272656e746c792061637460448201526269766560e81b606482015260840161066f565b604080516020810190915281546001600160401b031690819052600090610f3b908790610cf2565b9050610f49878787846118b6565b856001600160a01b03167fb8e138887d0aa13bab447e82de9d5c1777041ecd21ca36ba824ff1e6c07ddda488878488604051610f889493929190612533565b60405180910390a29695505050505050565b600080610fa683611a35565b90506004816007811115610fbc57610fbc61267d565b14610fc75792915050565b60008381526005602052604090205480610fe2575092915050565b60048054604051632ab0f52960e01b81529182018390526001600160a01b031690632ab0f5299060240160206040518083038186803b15801561102457600080fd5b505afa158015611038573d6000803e3d6000fd5b505050506040513d601f19601f8201168201806040525081019061105c9190611fc5565b1561106b575060079392505050565b5060059392505050565b60008061108b8686868680519060200120610cb8565b905084518651146110ae5760405162461bcd60e51b815260040161066f906123c2565b83518651146110cf5760405162461bcd60e51b815260040161066f906123c2565b60008651116111205760405162461bcd60e51b815260206004820152601860248201527f476f7665726e6f723a20656d7074792070726f706f73616c0000000000000000604482015260640161066f565b600081815260016020908152604091829020825191820190925281546001600160401b031690819052156111a05760405162461bcd60e51b815260206004820152602160248201527f476f7665726e6f723a2070726f706f73616c20616c72656164792065786973746044820152607360f81b606482015260840161066f565b60006111ac6001611b98565b6111b543611b98565b6111bf91906125c6565b905060006111ce61b2fa611b98565b6111d890836125c6565b835467ffffffffffffffff19166001600160401b038416178455905060018301805467ffffffffffffffff19166001600160401b0383161790557f7d84a6263ae0d98d3329bd7b46bb4e8d6f98cd35a7adb45c274c8b7fd5ebd5e084338b8b8d516001600160401b0381111561125057611250612693565b60405190808252806020026020018201604052801561128357816020015b606081526020019060019003908161126e5790505b508c88888e60405161129d99989796959493929190612444565b60405180910390a15091979650505050505050565b600454604080516001600160a01b03928316815291831660208301527f08f74ea46ef7894f65eabfb5e6e695de773a000b47c529ab559178069b226401910160405180910390a1600480546001600160a01b0319166001600160a01b0392909216919091179055565b604051630748d63560e31b81526001600160a01b038381166004830152602482018390526000917f000000000000000000000000000000000000000000000000000000000000000090911690633a46b1a89060440160206040518083038186803b15801561138857600080fd5b505afa15801561139c573d6000803e3d6000fd5b505050506040513d601f19601f82011682018060405250810190610c829190611fe7565b60006064600354604051632394e7a360e21b8152600481018590527f00000000000000000000000000000000000000000000000000000000000000006001600160a01b031690638e539e8c9060240160206040518083038186803b15801561142757600080fd5b505afa15801561143b573d6000803e3d6000fd5b505050506040513d601f19601f8201168201806040525081019061145f9190611fe7565b6114699190612613565b61060a91906125f1565b60006001600160e01b0319821663bf26d89760e01b148061060a57506301ffc9a760e01b6001600160e01b031983161461060a565b6004805460405163e38335e560e01b81526001600160a01b039091169163e38335e59134916114e2918991899189916000918a91016122e1565b6000604051808303818588803b1580156114fb57600080fd5b505af115801561150f573d6000803e3d6000fd5b50505050505050505050565b60007f000000000000000000000000000000000000000000000000000000000000000046141561156a57507f000000000000000000000000000000000000000000000000000000000000000090565b50604080517f00000000000000000000000000000000000000000000000000000000000000006020808301919091527f0000000000000000000000000000000000000000000000000000000000000000828401527f000000000000000000000000000000000000000000000000000000000000000060608301524660808301523060a0808401919091528351808403909101815260c0909201909252805191012090565b6000807f7fffffffffffffffffffffffffffffff5d576e7357a4501ddfe92f46681b20a083111561164557506000905060036116f2565b8460ff16601b1415801561165d57508460ff16601c14155b1561166e57506000905060046116f2565b6040805160008082526020820180845289905260ff881692820192909252606081018690526080810185905260019060a0016020604051602081039080840390855afa1580156116c2573d6000803e3d6000fd5b5050604051601f1901519150506001600160a01b0381166116eb576000600192509250506116f2565b9150600090505b94509492505050565b600081600481111561170f5761170f61267d565b14156117185750565b600181600481111561172c5761172c61267d565b141561177a5760405162461bcd60e51b815260206004820152601860248201527f45434453413a20696e76616c6964207369676e61747572650000000000000000604482015260640161066f565b600281600481111561178e5761178e61267d565b14156117dc5760405162461bcd60e51b815260206004820152601f60248201527f45434453413a20696e76616c6964207369676e6174757265206c656e67746800604482015260640161066f565b60038160048111156117f0576117f061267d565b14156118495760405162461bcd60e51b815260206004820152602260248201527f45434453413a20696e76616c6964207369676e6174757265202773272076616c604482015261756560f01b606482015260840161066f565b600481600481111561185d5761185d61267d565b14156106815760405162461bcd60e51b815260206004820152602260248201527f45434453413a20696e76616c6964207369676e6174757265202776272076616c604482015261756560f01b606482015260840161066f565b60008481526002602090815260408083206001600160a01b0387168452600381019092529091205460ff161561193e5760405162461bcd60e51b815260206004820152602760248201527f476f7665726e6f72566f74696e6753696d706c653a20766f746520616c726561604482015266191e4818d85cdd60ca1b606482015260840161066f565b6001600160a01b03841660009081526003820160205260408120805460ff1916600117905560ff168360ff16141561198f578181600001600082825461198491906125ae565b90915550610e1c9050565b60ff8316600114156119af578181600101600082825461198491906125ae565b60ff8316600214156119cf578181600201600082825461198491906125ae565b60405162461bcd60e51b815260206004820152603560248201527f476f7665726e6f72566f74696e6753696d706c653a20696e76616c69642076616044820152746c756520666f7220656e756d20566f74655479706560581b606482015260840161066f565b6000818152600160208181526040808420815160a08101835281546001600160401b0390811660808301908152825283518086018552958301541685529283019390935260029092015460ff80821615801594840194909452610100909104161515606082015290611aaa5750600792915050565b806060015115611abd5750600292915050565b805151436001600160401b039091161115611adb5750600092915050565b602081015151436001600160401b039091161115611afc5750600192915050565b611b098160200151611c04565b15611b4a57611b1783611c33565b8015611b36575060008381526002602052604090208054600190910154115b611b41576003610c82565b60049392505050565b60405162461bcd60e51b815260206004820152601d60248201527f476f7665726e6f723a20756e6b6e6f776e2070726f706f73616c206964000000604482015260640161066f565b50919050565b60006001600160401b03821115611c005760405162461bcd60e51b815260206004820152602660248201527f53616665436173743a2076616c756520646f65736e27742066697420696e203660448201526534206269747360d01b606482015260840161066f565b5090565b6000611c1982516001600160401b0316151590565b801561060a57505051436001600160401b03909116111590565b60008181526002602081905260408220908101546001820154611c5691906125ae565b611c626105c685610a11565b11159392505050565b60006001600160401b03831115611c8457611c84612693565b611c97601f8401601f191660200161255b565b9050828152838383011115611cab57600080fd5b828260208301376000602084830101529392505050565b600082601f830112611cd357600080fd5b81356020611ce8611ce38361258b565b61255b565b80838252828201915082860187848660051b8901011115611d0857600080fd5b60005b85811015611d30578135611d1e816126a9565b84529284019290840190600101611d0b565b5090979650505050505050565b600082601f830112611d4e57600080fd5b81356020611d5e611ce38361258b565b80838252828201915082860187848660051b8901011115611d7e57600080fd5b60005b85811015611d305781356001600160401b03811115611d9f57600080fd5b8801603f81018a13611db057600080fd5b611dc18a8783013560408401611c6b565b8552509284019290840190600101611d81565b600082601f830112611de557600080fd5b81356020611df5611ce38361258b565b80838252828201915082860187848660051b8901011115611e1557600080fd5b60005b85811015611d3057813584529284019290840190600101611e18565b803560ff81168114611e4557600080fd5b919050565b60008060408385031215611e5d57600080fd5b8235611e68816126a9565b946020939093013593505050565b60008060008060808587031215611e8c57600080fd5b84356001600160401b0380821115611ea357600080fd5b611eaf88838901611cc2565b95506020870135915080821115611ec557600080fd5b611ed188838901611dd4565b94506040870135915080821115611ee757600080fd5b50611ef487828801611d3d565b949793965093946060013593505050565b60008060008060808587031215611f1b57600080fd5b84356001600160401b0380821115611f3257600080fd5b611f3e88838901611cc2565b95506020870135915080821115611f5457600080fd5b611f6088838901611dd4565b94506040870135915080821115611f7657600080fd5b611f8288838901611d3d565b93506060870135915080821115611f9857600080fd5b508501601f81018713611faa57600080fd5b611fb987823560208401611c6b565b91505092959194509250565b600060208284031215611fd757600080fd5b81518015158114610c8257600080fd5b600060208284031215611ff957600080fd5b5051919050565b60006020828403121561201257600080fd5b81356001600160e01b031981168114610c8257600080fd5b60006020828403121561203c57600080fd5b8135610c82816126a9565b60006020828403121561205957600080fd5b5035919050565b6000806040838503121561207357600080fd5b823591506020830135612085816126a9565b809150509250929050565b600080604083850312156120a357600080fd5b823591506120b360208401611e34565b90509250929050565b600080600080606085870312156120d257600080fd5b843593506120e260208601611e34565b925060408501356001600160401b03808211156120fe57600080fd5b818701915087601f83011261211257600080fd5b81358181111561212157600080fd5b88602082850101111561213357600080fd5b95989497505060200194505050565b600080600080600060a0868803121561215a57600080fd5b8535945061216a60208701611e34565b935061217860408701611e34565b94979396509394606081013594506080013592915050565b600081518084526020808501945080840160005b838110156121c95781516001600160a01b0316875295820195908201906001016121a4565b509495945050505050565b6000815180845260208085019450848260051b860182860160005b85811015611d30578383038952612207838351612249565b988501989250908401906001016121ef565b600081518084526020808501945080840160005b838110156121c95781518752958201959082019060010161222d565b6000815180845260005b8181101561226f57602081850181015186830182015201612253565b81811115612281576000602083870101525b50601f01601f19169290920160200192915050565b6080815260006122a96080830187612190565b82810360208401526122bb8187612219565b905082810360408401526122cf81866121d4565b91505082606083015295945050505050565b60a0815260006122f460a0830188612190565b82810360208401526123068188612219565b9050828103604084015261231a81876121d4565b60608401959095525050608001529392505050565b60c08152600061234260c0830189612190565b82810360208401526123548189612219565b9050828103604084015261236881886121d4565b60608401969096525050608081019290925260a0909101529392505050565b60208101600883106123a957634e487b7160e01b600052602160045260246000fd5b91905290565b602081526000610c826020830184612249565b60208082526021908201527f476f7665726e6f723a20696e76616c69642070726f706f73616c206c656e67746040820152600d60fb1b606082015260800190565b60208082526021908201527f476f7665726e6f723a2070726f706f73616c206e6f74207375636365737366756040820152601b60fa1b606082015260800190565b60006101208b8352602060018060a01b038c168185015281604085015261246d8285018c612190565b91508382036060850152612481828b612219565b915083820360808501528189518084528284019150828160051b850101838c0160005b838110156124d257601f198784030185526124c0838351612249565b948601949250908501906001016124a4565b505086810360a08801526124e6818c6121d4565b94505050505061250160c08401876001600160401b03169052565b6001600160401b03851660e08401528281036101008401526125238185612249565b9c9b505050505050505050505050565b84815260ff84166020820152826040820152608060608201526000610b586080830184612249565b604051601f8201601f191681016001600160401b038111828210171561258357612583612693565b604052919050565b60006001600160401b038211156125a4576125a4612693565b5060051b60200190565b600082198211156125c1576125c1612667565b500190565b60006001600160401b038083168185168083038211156125e8576125e8612667565b01949350505050565b60008261260e57634e487b7160e01b600052601260045260246000fd5b500490565b600081600019048311821515161561262d5761262d612667565b500290565b600181811c9082168061264657607f821691505b60208210811415611b9257634e487b7160e01b600052602260045260246000fd5b634e487b7160e01b600052601160045260246000fd5b634e487b7160e01b600052602160045260246000fd5b634e487b7160e01b600052604160045260246000fd5b6001600160a01b038116811461068157600080fdfea264697066735822122058c541f615bdc5fa5553751e00b29b57c611ed2d311d25c985e34891ad6d7d0664736f6c63430008060033",
  "devdoc": {
    "author": "CVault Finance",
    "kind": "dev",
    "methods": {
      "COUNTING_MODE()": {
        "details": "See {IGovernor-COUNTING_MODE}."
      },
      "castVote(uint256,uint8)": {
        "details": "See {IGovernor-castVote}."
      },
      "castVoteBySig(uint256,uint8,uint8,bytes32,bytes32)": {
        "details": "See {IGovernor-castVoteBySig}."
      },
      "castVoteWithReason(uint256,uint8,string)": {
        "details": "See {IGovernor-castVoteWithReason}."
      },
      "execute(address[],uint256[],bytes[],bytes32)": {
        "details": "See {IGovernor-execute}."
      },
      "hasVoted(uint256,address)": {
        "details": "See {IGovernor-hasVoted}."
      },
      "hashProposal(address[],uint256[],bytes[],bytes32)": {
        "details": "See {IGovernor-hashProposal}. The proposal id is produced by hashing the RLC encoded `targets` array, the `values` array, the `calldatas` array and the descriptionHash (bytes32 which itself is the keccak256 hash of the description string). This proposal id can be produced from the proposal data which is part of the {ProposalCreated} event. It can even be computed in advance, before the proposal is submitted. Note that the chainId and the governor address are not part of the proposal id computation. Consequently, the same proposal (with same operation and same description) will have the same id if submitted on multiple governors accross multiple networks. This also means that in order to execute the same operation twice (on the same governor) the proposer will have to change the description in order to avoid proposal id conflicts."
      },
      "name()": {
        "details": "See {IGovernor-name}."
      },
      "proposalDeadline(uint256)": {
        "details": "See {IGovernor-proposalDeadline}."
      },
      "proposalEta(uint256)": {
        "details": "Public accessor to check the eta of a queued proposal"
      },
      "proposalSnapshot(uint256)": {
        "details": "See {IGovernor-proposalSnapshot}."
      },
      "proposalVotes(uint256)": {
        "details": "Accessor to the internal vote counts."
      },
      "queue(address[],uint256[],bytes[],bytes32)": {
        "details": "Function to queue a proposal to the timelock."
      },
      "timelock()": {
        "details": "Public accessor to check the address of the timelock"
      },
      "updateTimelock(address)": {
        "details": "Public endpoint to update the underlying timelock instance. Restricted to the timelock itself, so updates must be proposed, scheduled and executed using the {Governor} workflow."
      },
      "version()": {
        "details": "See {IGovernor-version}."
      },
      "votingDelay()": {
        "details": "delay, in number of block, between the proposal is created and the vote starts. This can be increassed to leave time for users to buy voting power, of delegate it, before the voting of a proposal starts."
      },
      "votingPeriod()": {
        "details": "delay, in number of blocks, between the vote start and vote ends. Note: the {votingDelay} can delay the start of the vote. This must be considered when setting the voting duration compared to the voting delay."
      }
    },
    "title": "OZ Governor contract implementation",
    "version": 1
  },
  "userdoc": {
    "kind": "user",
    "methods": {
      "votingDelay()": {
        "notice": "module:user-config"
      },
      "votingPeriod()": {
        "notice": "module:user-config"
      }
    },
    "version": 1
  },
  "storageLayout": {
    "storage": [
      {
        "astId": 638,
        "contract": "contracts/CoreGovernor.sol:CoreGovernor",
        "label": "_name",
        "offset": 0,
        "slot": "0",
        "type": "t_string_storage"
      },
      {
        "astId": 643,
        "contract": "contracts/CoreGovernor.sol:CoreGovernor",
        "label": "_proposals",
        "offset": 0,
        "slot": "1",
        "type": "t_mapping(t_uint256,t_struct(ProposalCore)636_storage)"
      },
      {
        "astId": 2417,
        "contract": "contracts/CoreGovernor.sol:CoreGovernor",
        "label": "_proposalVotes",
        "offset": 0,
        "slot": "2",
        "type": "t_mapping(t_uint256,t_struct(ProposalVote)2412_storage)"
      },
      {
        "astId": 3032,
        "contract": "contracts/CoreGovernor.sol:CoreGovernor",
        "label": "_quorumNumerator",
        "offset": 0,
        "slot": "3",
        "type": "t_uint256"
      },
      {
        "astId": 2628,
        "contract": "contracts/CoreGovernor.sol:CoreGovernor",
        "label": "_timelock",
        "offset": 0,
        "slot": "4",
        "type": "t_contract(TimelockController)2391"
      },
      {
        "astId": 2632,
        "contract": "contracts/CoreGovernor.sol:CoreGovernor",
        "label": "_timelockIds",
        "offset": 0,
        "slot": "5",
        "type": "t_mapping(t_uint256,t_bytes32)"
      }
    ],
    "types": {
      "t_address": {
        "encoding": "inplace",
        "label": "address",
        "numberOfBytes": "20"
      },
      "t_bool": {
        "encoding": "inplace",
        "label": "bool",
        "numberOfBytes": "1"
      },
      "t_bytes32": {
        "encoding": "inplace",
        "label": "bytes32",
        "numberOfBytes": "32"
      },
      "t_contract(TimelockController)2391": {
        "encoding": "inplace",
        "label": "contract TimelockController",
        "numberOfBytes": "20"
      },
      "t_mapping(t_address,t_bool)": {
        "encoding": "mapping",
        "key": "t_address",
        "label": "mapping(address => bool)",
        "numberOfBytes": "32",
        "value": "t_bool"
      },
      "t_mapping(t_uint256,t_bytes32)": {
        "encoding": "mapping",
        "key": "t_uint256",
        "label": "mapping(uint256 => bytes32)",
        "numberOfBytes": "32",
        "value": "t_bytes32"
      },
      "t_mapping(t_uint256,t_struct(ProposalCore)636_storage)": {
        "encoding": "mapping",
        "key": "t_uint256",
        "label": "mapping(uint256 => struct Governor.ProposalCore)",
        "numberOfBytes": "32",
        "value": "t_struct(ProposalCore)636_storage"
      },
      "t_mapping(t_uint256,t_struct(ProposalVote)2412_storage)": {
        "encoding": "mapping",
        "key": "t_uint256",
        "label": "mapping(uint256 => struct GovernorCountingSimple.ProposalVote)",
        "numberOfBytes": "32",
        "value": "t_struct(ProposalVote)2412_storage"
      },
      "t_string_storage": {
        "encoding": "bytes",
        "label": "string",
        "numberOfBytes": "32"
      },
      "t_struct(BlockNumber)6061_storage": {
        "encoding": "inplace",
        "label": "struct Timers.BlockNumber",
        "members": [
          {
            "astId": 6060,
            "contract": "contracts/CoreGovernor.sol:CoreGovernor",
            "label": "_deadline",
            "offset": 0,
            "slot": "0",
            "type": "t_uint64"
          }
        ],
        "numberOfBytes": "32"
      },
      "t_struct(ProposalCore)636_storage": {
        "encoding": "inplace",
        "label": "struct Governor.ProposalCore",
        "members": [
          {
            "astId": 628,
            "contract": "contracts/CoreGovernor.sol:CoreGovernor",
            "label": "voteStart",
            "offset": 0,
            "slot": "0",
            "type": "t_struct(BlockNumber)6061_storage"
          },
          {
            "astId": 631,
            "contract": "contracts/CoreGovernor.sol:CoreGovernor",
            "label": "voteEnd",
            "offset": 0,
            "slot": "1",
            "type": "t_struct(BlockNumber)6061_storage"
          },
          {
            "astId": 633,
            "contract": "contracts/CoreGovernor.sol:CoreGovernor",
            "label": "executed",
            "offset": 0,
            "slot": "2",
            "type": "t_bool"
          },
          {
            "astId": 635,
            "contract": "contracts/CoreGovernor.sol:CoreGovernor",
            "label": "canceled",
            "offset": 1,
            "slot": "2",
            "type": "t_bool"
          }
        ],
        "numberOfBytes": "96"
      },
      "t_struct(ProposalVote)2412_storage": {
        "encoding": "inplace",
        "label": "struct GovernorCountingSimple.ProposalVote",
        "members": [
          {
            "astId": 2403,
            "contract": "contracts/CoreGovernor.sol:CoreGovernor",
            "label": "againstVotes",
            "offset": 0,
            "slot": "0",
            "type": "t_uint256"
          },
          {
            "astId": 2405,
            "contract": "contracts/CoreGovernor.sol:CoreGovernor",
            "label": "forVotes",
            "offset": 0,
            "slot": "1",
            "type": "t_uint256"
          },
          {
            "astId": 2407,
            "contract": "contracts/CoreGovernor.sol:CoreGovernor",
            "label": "abstainVotes",
            "offset": 0,
            "slot": "2",
            "type": "t_uint256"
          },
          {
            "astId": 2411,
            "contract": "contracts/CoreGovernor.sol:CoreGovernor",
            "label": "hasVoted",
            "offset": 0,
            "slot": "3",
            "type": "t_mapping(t_address,t_bool)"
          }
        ],
        "numberOfBytes": "128"
      },
      "t_uint256": {
        "encoding": "inplace",
        "label": "uint256",
        "numberOfBytes": "32"
      },
      "t_uint64": {
        "encoding": "inplace",
        "label": "uint64",
        "numberOfBytes": "8"
      }
    }
  }
}