{
  "address": "0x95401dc811bb5740090279Ba06cfA8fcF6113778",
  "abi": [
    {
      "inputs": [
        {
          "internalType": "uint256",
          "name": "startingCOREDAOAmount",
          "type": "uint256"
        },
        {
          "internalType": "address",
          "name": "treasury",
          "type": "address"
        }
      ],
      "stateMutability": "nonpayable",
      "type": "constructor"
    },
    {
      "anonymous": false,
      "inputs": [
        {
          "indexed": true,
          "internalType": "address",
          "name": "owner",
          "type": "address"
        },
        {
          "indexed": true,
          "internalType": "address",
          "name": "spender",
          "type": "address"
        },
        {
          "indexed": false,
          "internalType": "uint256",
          "name": "value",
          "type": "uint256"
        }
      ],
      "name": "Approval",
      "type": "event"
    },
    {
      "anonymous": false,
      "inputs": [
        {
          "indexed": true,
          "internalType": "address",
          "name": "delegator",
          "type": "address"
        },
        {
          "indexed": true,
          "internalType": "address",
          "name": "fromDelegate",
          "type": "address"
        },
        {
          "indexed": true,
          "internalType": "address",
          "name": "toDelegate",
          "type": "address"
        }
      ],
      "name": "DelegateChanged",
      "type": "event"
    },
    {
      "anonymous": false,
      "inputs": [
        {
          "indexed": true,
          "internalType": "address",
          "name": "delegate",
          "type": "address"
        },
        {
          "indexed": false,
          "internalType": "uint256",
          "name": "previousBalance",
          "type": "uint256"
        },
        {
          "indexed": false,
          "internalType": "uint256",
          "name": "newBalance",
          "type": "uint256"
        }
      ],
      "name": "DelegateVotesChanged",
      "type": "event"
    },
    {
      "anonymous": false,
      "inputs": [
        {
          "indexed": true,
          "internalType": "address",
          "name": "from",
          "type": "address"
        },
        {
          "indexed": true,
          "internalType": "address",
          "name": "to",
          "type": "address"
        },
        {
          "indexed": false,
          "internalType": "uint256",
          "name": "value",
          "type": "uint256"
        }
      ],
      "name": "Transfer",
      "type": "event"
    },
    {
      "inputs": [],
      "name": "CORE_DAO_TREASURY",
      "outputs": [
        {
          "internalType": "address",
          "name": "",
          "type": "address"
        }
      ],
      "stateMutability": "view",
      "type": "function"
    },
    {
      "inputs": [],
      "name": "DOMAIN_SEPARATOR",
      "outputs": [
        {
          "internalType": "bytes32",
          "name": "",
          "type": "bytes32"
        }
      ],
      "stateMutability": "view",
      "type": "function"
    },
    {
      "inputs": [
        {
          "internalType": "address",
          "name": "owner",
          "type": "address"
        },
        {
          "internalType": "address",
          "name": "spender",
          "type": "address"
        }
      ],
      "name": "allowance",
      "outputs": [
        {
          "internalType": "uint256",
          "name": "",
          "type": "uint256"
        }
      ],
      "stateMutability": "view",
      "type": "function"
    },
    {
      "inputs": [
        {
          "internalType": "address",
          "name": "spender",
          "type": "address"
        },
        {
          "internalType": "uint256",
          "name": "amount",
          "type": "uint256"
        }
      ],
      "name": "approve",
      "outputs": [
        {
          "internalType": "bool",
          "name": "",
          "type": "bool"
        }
      ],
      "stateMutability": "nonpayable",
      "type": "function"
    },
    {
      "inputs": [
        {
          "internalType": "address",
          "name": "account",
          "type": "address"
        }
      ],
      "name": "balanceOf",
      "outputs": [
        {
          "internalType": "uint256",
          "name": "",
          "type": "uint256"
        }
      ],
      "stateMutability": "view",
      "type": "function"
    },
    {
      "inputs": [
        {
          "internalType": "address",
          "name": "account",
          "type": "address"
        },
        {
          "internalType": "uint32",
          "name": "pos",
          "type": "uint32"
        }
      ],
      "name": "checkpoints",
      "outputs": [
        {
          "components": [
            {
              "internalType": "uint32",
              "name": "fromBlock",
              "type": "uint32"
            },
            {
              "internalType": "uint224",
              "name": "votes",
              "type": "uint224"
            }
          ],
          "internalType": "struct ERC20Votes.Checkpoint",
          "name": "",
          "type": "tuple"
        }
      ],
      "stateMutability": "view",
      "type": "function"
    },
    {
      "inputs": [],
      "name": "decimals",
      "outputs": [
        {
          "internalType": "uint8",
          "name": "",
          "type": "uint8"
        }
      ],
      "stateMutability": "view",
      "type": "function"
    },
    {
      "inputs": [
        {
          "internalType": "address",
          "name": "spender",
          "type": "address"
        },
        {
          "internalType": "uint256",
          "name": "subtractedValue",
          "type": "uint256"
        }
      ],
      "name": "decreaseAllowance",
      "outputs": [
        {
          "internalType": "bool",
          "name": "",
          "type": "bool"
        }
      ],
      "stateMutability": "nonpayable",
      "type": "function"
    },
    {
      "inputs": [
        {
          "internalType": "address",
          "name": "delegatee",
          "type": "address"
        }
      ],
      "name": "delegate",
      "outputs": [],
      "stateMutability": "nonpayable",
      "type": "function"
    },
    {
      "inputs": [
        {
          "internalType": "address",
          "name": "delegatee",
          "type": "address"
        },
        {
          "internalType": "uint256",
          "name": "nonce",
          "type": "uint256"
        },
        {
          "internalType": "uint256",
          "name": "expiry",
          "type": "uint256"
        },
        {
          "internalType": "uint8",
          "name": "v",
          "type": "uint8"
        },
        {
          "internalType": "bytes32",
          "name": "r",
          "type": "bytes32"
        },
        {
          "internalType": "bytes32",
          "name": "s",
          "type": "bytes32"
        }
      ],
      "name": "delegateBySig",
      "outputs": [],
      "stateMutability": "nonpayable",
      "type": "function"
    },
    {
      "inputs": [
        {
          "internalType": "address",
          "name": "account",
          "type": "address"
        }
      ],
      "name": "delegates",
      "outputs": [
        {
          "internalType": "address",
          "name": "",
          "type": "address"
        }
      ],
      "stateMutability": "view",
      "type": "function"
    },
    {
      "inputs": [
        {
          "internalType": "uint256",
          "name": "blockNumber",
          "type": "uint256"
        }
      ],
      "name": "getPastTotalSupply",
      "outputs": [
        {
          "internalType": "uint256",
          "name": "",
          "type": "uint256"
        }
      ],
      "stateMutability": "view",
      "type": "function"
    },
    {
      "inputs": [
        {
          "internalType": "address",
          "name": "account",
          "type": "address"
        },
        {
          "internalType": "uint256",
          "name": "blockNumber",
          "type": "uint256"
        }
      ],
      "name": "getPastVotes",
      "outputs": [
        {
          "internalType": "uint256",
          "name": "",
          "type": "uint256"
        }
      ],
      "stateMutability": "view",
      "type": "function"
    },
    {
      "inputs": [
        {
          "internalType": "address",
          "name": "account",
          "type": "address"
        }
      ],
      "name": "getVotes",
      "outputs": [
        {
          "internalType": "uint256",
          "name": "",
          "type": "uint256"
        }
      ],
      "stateMutability": "view",
      "type": "function"
    },
    {
      "inputs": [
        {
          "internalType": "address",
          "name": "spender",
          "type": "address"
        },
        {
          "internalType": "uint256",
          "name": "addedValue",
          "type": "uint256"
        }
      ],
      "name": "increaseAllowance",
      "outputs": [
        {
          "internalType": "bool",
          "name": "",
          "type": "bool"
        }
      ],
      "stateMutability": "nonpayable",
      "type": "function"
    },
    {
      "inputs": [
        {
          "internalType": "uint256",
          "name": "amount",
          "type": "uint256"
        },
        {
          "internalType": "address",
          "name": "to",
          "type": "address"
        }
      ],
      "name": "issue",
      "outputs": [],
      "stateMutability": "nonpayable",
      "type": "function"
    },
    {
      "inputs": [],
      "name": "name",
      "outputs": [
        {
          "internalType": "string",
          "name": "",
          "type": "string"
        }
      ],
      "stateMutability": "view",
      "type": "function"
    },
    {
      "inputs": [
        {
          "internalType": "address",
          "name": "owner",
          "type": "address"
        }
      ],
      "name": "nonces",
      "outputs": [
        {
          "internalType": "uint256",
          "name": "",
          "type": "uint256"
        }
      ],
      "stateMutability": "view",
      "type": "function"
    },
    {
      "inputs": [
        {
          "internalType": "address",
          "name": "account",
          "type": "address"
        }
      ],
      "name": "numCheckpoints",
      "outputs": [
        {
          "internalType": "uint32",
          "name": "",
          "type": "uint32"
        }
      ],
      "stateMutability": "view",
      "type": "function"
    },
    {
      "inputs": [
        {
          "internalType": "address",
          "name": "owner",
          "type": "address"
        },
        {
          "internalType": "address",
          "name": "spender",
          "type": "address"
        },
        {
          "internalType": "uint256",
          "name": "value",
          "type": "uint256"
        },
        {
          "internalType": "uint256",
          "name": "deadline",
          "type": "uint256"
        },
        {
          "internalType": "uint8",
          "name": "v",
          "type": "uint8"
        },
        {
          "internalType": "bytes32",
          "name": "r",
          "type": "bytes32"
        },
        {
          "internalType": "bytes32",
          "name": "s",
          "type": "bytes32"
        }
      ],
      "name": "permit",
      "outputs": [],
      "stateMutability": "nonpayable",
      "type": "function"
    },
    {
      "inputs": [],
      "name": "symbol",
      "outputs": [
        {
          "internalType": "string",
          "name": "",
          "type": "string"
        }
      ],
      "stateMutability": "view",
      "type": "function"
    },
    {
      "inputs": [],
      "name": "totalSupply",
      "outputs": [
        {
          "internalType": "uint256",
          "name": "",
          "type": "uint256"
        }
      ],
      "stateMutability": "view",
      "type": "function"
    },
    {
      "inputs": [
        {
          "internalType": "address",
          "name": "recipient",
          "type": "address"
        },
        {
          "internalType": "uint256",
          "name": "amount",
          "type": "uint256"
        }
      ],
      "name": "transfer",
      "outputs": [
        {
          "internalType": "bool",
          "name": "",
          "type": "bool"
        }
      ],
      "stateMutability": "nonpayable",
      "type": "function"
    },
    {
      "inputs": [
        {
          "internalType": "address",
          "name": "sender",
          "type": "address"
        },
        {
          "internalType": "address",
          "name": "recipient",
          "type": "address"
        },
        {
          "internalType": "uint256",
          "name": "amount",
          "type": "uint256"
        }
      ],
      "name": "transferFrom",
      "outputs": [
        {
          "internalType": "bool",
          "name": "",
          "type": "bool"
        }
      ],
      "stateMutability": "nonpayable",
      "type": "function"
    }
  ],
  "transactionHash": "0x4b18295dec934d471dbdd912c13d87f38c183215ea881ef90a94c1833615e6b3",
  "args": [
    30000000,
    "0xf5059a5D33d5853360D16C683c16e67980206f36"
  ],
  "solcInputHash": "343aaa9a976c765679cea9a8ef416a74",
  "bytecode": "0x6101606040527f6e71edae12b1b97f4d1f60370fef10105fa2faae0126114a169c64845d6126c9610120523480156200003757600080fd5b5060405162002667380380620026678339810160408190526200005a9162000838565b60405180604001604052806007815260200166436f726544414f60c81b81525080604051806040016040528060018152602001603160f81b81525060405180604001604052806008815260200167434f52452044414f60c01b81525060405180604001604052806007815260200166636f726544414f60c81b8152508160039080519060200190620000ee9291906200079c565b508051620001049060049060208401906200079c565b5050825160209384012082519284019290922060c083815260e08290524660a0818152604080517f8b73c3c69bb8fe3d512ecc4cf759cc79239f7b179b0ffacaa9a75d522b39400f818a018190528183019890985260608082019690965260808082019490945230818401528151808203909301835290930190925281519190950120909352506101005282901b6001600160601b0319166101405250620001ad8183620001b5565b505062000915565b620001cc82826200026c60201b62000b8b1760201c565b6001600160e01b03620001e06200035f8216565b11156200024d5760405162461bcd60e51b815260206004820152603060248201527f4552433230566f7465733a20746f74616c20737570706c79207269736b73206f60448201526f766572666c6f77696e6720766f74657360801b60648201526084015b60405180910390fd5b62000266600862000c726200036560201b17836200037a565b50505050565b6001600160a01b038216620002c45760405162461bcd60e51b815260206004820152601f60248201527f45524332303a206d696e7420746f20746865207a65726f206164647265737300604482015260640162000244565b8060026000828254620002d8919062000877565b90915550506001600160a01b038216600090815260208190526040812080548392906200030790849062000877565b90915550506040518181526001600160a01b038316906000907fddf252ad1be2c89b69c2b068fc378daa952ba7f163c4a11628f55a4df523b3ef9060200160405180910390a36200035b6000838362000531565b5050565b60025490565b600062000373828462000877565b9392505050565b825460009081908015620003cc57856200039660018362000892565b81548110620003a957620003a9620008ff565b60009182526020909120015464010000000090046001600160e01b0316620003cf565b60005b6001600160e01b03169250620003e683858760201c565b91506000811180156200042a575043866200040360018462000892565b81548110620004165762000416620008ff565b60009182526020909120015463ffffffff16145b156200049e5762000446826200057d60201b62000c7e1760201c565b866200045460018462000892565b81548110620004675762000467620008ff565b9060005260206000200160000160046101000a8154816001600160e01b0302191690836001600160e01b0316021790555062000523565b856040518060400160405280620004c043620005ec60201b62000ceb1760201c565b63ffffffff168152602001620004e1856200057d60201b62000c7e1760201c565b6001600160e01b0390811690915282546001810184556000938452602093849020835194909301519091166401000000000263ffffffff909316929092179101555b50935093915050565b505050565b620005498383836200052c60201b62000d501760201c565b6001600160a01b038381166000908152600660205260408082205485841683529120546200052c9291821691168362000653565b60006001600160e01b03821115620005e85760405162461bcd60e51b815260206004820152602760248201527f53616665436173743a2076616c756520646f65736e27742066697420696e20326044820152663234206269747360c81b606482015260840162000244565b5090565b600063ffffffff821115620005e85760405162461bcd60e51b815260206004820152602660248201527f53616665436173743a2076616c756520646f65736e27742066697420696e203360448201526532206269747360d01b606482015260840162000244565b816001600160a01b0316836001600160a01b031614158015620006765750600081115b156200052c576001600160a01b0383161562000703576001600160a01b038316600090815260076020908152604082208291620006c091906200078e901b62000d5517856200037a565b91509150846001600160a01b0316600080516020620026478339815191528383604051620006f8929190918252602082015260400190565b60405180910390a250505b6001600160a01b038216156200052c576001600160a01b03821660009081526007602090815260408220829162000747919062000365901b62000c7217856200037a565b91509150836001600160a01b03166000805160206200264783398151915283836040516200077f929190918252602082015260400190565b60405180910390a25050505050565b600062000373828462000892565b828054620007aa90620008ac565b90600052602060002090601f016020900481019282620007ce576000855562000819565b82601f10620007e957805160ff191683800117855562000819565b8280016001018555821562000819579182015b8281111562000819578251825591602001919060010190620007fc565b50620005e89291505b80821115620005e8576000815560010162000822565b600080604083850312156200084c57600080fd5b825160208401519092506001600160a01b03811681146200086c57600080fd5b809150509250929050565b600082198211156200088d576200088d620008e9565b500190565b600082821015620008a757620008a7620008e9565b500390565b600181811c90821680620008c157607f821691505b60208210811415620008e357634e487b7160e01b600052602260045260246000fd5b50919050565b634e487b7160e01b600052601160045260246000fd5b634e487b7160e01b600052603260045260246000fd5b60805160a05160c05160e05161010051610120516101405160601c611ccd6200097a6000396000818161031601526107f9015260006109f7015260006110b501526000611104015260006110df015260006110630152600061108c0152611ccd6000f3fe608060405234801561001057600080fd5b50600436106101585760003560e01c80637ecebe00116100c3578063aaea96cb1161007c578063aaea96cb14610311578063b696a6ad14610338578063c3cda5201461034b578063d505accf1461035e578063dd62ed3e14610371578063f1127ed8146103aa57600080fd5b80637ecebe00146102aa5780638e539e8c146102bd57806395d89b41146102d05780639ab24eb0146102d8578063a457c2d7146102eb578063a9059cbb146102fe57600080fd5b8063395093511161011557806339509351146101da5780633a46b1a8146101ed578063587cde1e146102005780635c19a95c146102445780636fcfff451461025957806370a082311461028157600080fd5b806306fdde031461015d578063095ea7b31461017b57806318160ddd1461019e57806323b872dd146101b0578063313ce567146101c35780633644e515146101d2575b600080fd5b6101656103e7565b6040516101729190611b7a565b60405180910390f35b61018e610189366004611a7c565b610479565b6040519015158152602001610172565b6002545b604051908152602001610172565b61018e6101be3660046119d6565b61048f565b60405160128152602001610172565b6101a261053e565b61018e6101e8366004611a7c565b61054d565b6101a26101fb366004611a7c565b610589565b61022c61020e366004611988565b6001600160a01b039081166000908152600660205260409020541690565b6040516001600160a01b039091168152602001610172565b610257610252366004611988565b610603565b005b61026c610267366004611988565b610610565b60405163ffffffff9091168152602001610172565b6101a261028f366004611988565b6001600160a01b031660009081526020819052604090205490565b6101a26102b8366004611988565b610638565b6101a26102cb366004611b3e565b610656565b6101656106b2565b6101a26102e6366004611988565b6106c1565b61018e6102f9366004611a7c565b610748565b61018e61030c366004611a7c565b6107e1565b61022c7f000000000000000000000000000000000000000000000000000000000000000081565b610257610346366004611b57565b6107ee565b610257610359366004611aa6565b61086d565b61025761036c366004611a12565b6109a3565b6101a261037f3660046119a3565b6001600160a01b03918216600090815260016020908152604080832093909416825291909152205490565b6103bd6103b8366004611afe565b610b07565b60408051825163ffffffff1681526020928301516001600160e01b03169281019290925201610172565b6060600380546103f690611c20565b80601f016020809104026020016040519081016040528092919081815260200182805461042290611c20565b801561046f5780601f106104445761010080835404028352916020019161046f565b820191906000526020600020905b81548152906001019060200180831161045257829003601f168201915b5050505050905090565b6000610486338484610d61565b50600192915050565b600061049c848484610e85565b6001600160a01b0384166000908152600160209081526040808320338452909152902054828110156105265760405162461bcd60e51b815260206004820152602860248201527f45524332303a207472616e7366657220616d6f756e74206578636565647320616044820152676c6c6f77616e636560c01b60648201526084015b60405180910390fd5b6105338533858403610d61565b506001949350505050565b600061054861105f565b905090565b3360008181526001602090815260408083206001600160a01b03871684529091528120549091610486918590610584908690611bcf565b610d61565b60004382106105da5760405162461bcd60e51b815260206004820152601f60248201527f4552433230566f7465733a20626c6f636b206e6f7420796574206d696e656400604482015260640161051d565b6001600160a01b03831660009081526007602052604090206105fc9083611152565b9392505050565b61060d338261120f565b50565b6001600160a01b03811660009081526007602052604081205461063290610ceb565b92915050565b6001600160a01b038116600090815260056020526040812054610632565b60004382106106a75760405162461bcd60e51b815260206004820152601f60248201527f4552433230566f7465733a20626c6f636b206e6f7420796574206d696e656400604482015260640161051d565b610632600883611152565b6060600480546103f690611c20565b6001600160a01b0381166000908152600760205260408120548015610735576001600160a01b0383166000908152600760205260409020610703600183611c09565b8154811061071357610713611c81565b60009182526020909120015464010000000090046001600160e01b0316610738565b60005b6001600160e01b03169392505050565b3360009081526001602090815260408083206001600160a01b0386168452909152812054828110156107ca5760405162461bcd60e51b815260206004820152602560248201527f45524332303a2064656372656173656420616c6c6f77616e63652062656c6f77604482015264207a65726f60d81b606482015260840161051d565b6107d73385858403610d61565b5060019392505050565b6000610486338484610e85565b336001600160a01b037f0000000000000000000000000000000000000000000000000000000000000000161461085f5760405162461bcd60e51b8152602060048201526016602482015275434c656e64696e673a204e4f545f545245415355525960501b604482015260640161051d565b6108698183611288565b5050565b834211156108bd5760405162461bcd60e51b815260206004820152601d60248201527f4552433230566f7465733a207369676e61747572652065787069726564000000604482015260640161051d565b604080517fe48329057bfd03d55e49b547132e39cffd9c1820ad7b9d4c5307691425d15adf60208201526001600160a01b0388169181019190915260608101869052608081018590526000906109379061092f9060a00160405160208183030381529060405280519060200120611312565b858585611360565b905061094281611388565b86146109905760405162461bcd60e51b815260206004820152601960248201527f4552433230566f7465733a20696e76616c6964206e6f6e636500000000000000604482015260640161051d565b61099a818861120f565b50505050505050565b834211156109f35760405162461bcd60e51b815260206004820152601d60248201527f45524332305065726d69743a206578706972656420646561646c696e65000000604482015260640161051d565b60007f0000000000000000000000000000000000000000000000000000000000000000888888610a228c611388565b6040805160208101969096526001600160a01b0394851690860152929091166060840152608083015260a082015260c0810186905260e0016040516020818303038152906040528051906020012090506000610a7d82611312565b90506000610a8d82878787611360565b9050896001600160a01b0316816001600160a01b031614610af05760405162461bcd60e51b815260206004820152601e60248201527f45524332305065726d69743a20696e76616c6964207369676e61747572650000604482015260640161051d565b610afb8a8a8a610d61565b50505050505050505050565b60408051808201909152600080825260208201526001600160a01b0383166000908152600760205260409020805463ffffffff8416908110610b4b57610b4b611c81565b60009182526020918290206040805180820190915291015463ffffffff8116825264010000000090046001600160e01b0316918101919091529392505050565b6001600160a01b038216610be15760405162461bcd60e51b815260206004820152601f60248201527f45524332303a206d696e7420746f20746865207a65726f206164647265737300604482015260640161051d565b8060026000828254610bf39190611bcf565b90915550506001600160a01b03821660009081526020819052604081208054839290610c20908490611bcf565b90915550506040518181526001600160a01b038316906000907fddf252ad1be2c89b69c2b068fc378daa952ba7f163c4a11628f55a4df523b3ef9060200160405180910390a3610869600083836113b0565b60006105fc8284611bcf565b60006001600160e01b03821115610ce75760405162461bcd60e51b815260206004820152602760248201527f53616665436173743a2076616c756520646f65736e27742066697420696e20326044820152663234206269747360c81b606482015260840161051d565b5090565b600063ffffffff821115610ce75760405162461bcd60e51b815260206004820152602660248201527f53616665436173743a2076616c756520646f65736e27742066697420696e203360448201526532206269747360d01b606482015260840161051d565b505050565b60006105fc8284611c09565b6001600160a01b038316610dc35760405162461bcd60e51b8152602060048201526024808201527f45524332303a20617070726f76652066726f6d20746865207a65726f206164646044820152637265737360e01b606482015260840161051d565b6001600160a01b038216610e245760405162461bcd60e51b815260206004820152602260248201527f45524332303a20617070726f766520746f20746865207a65726f206164647265604482015261737360f01b606482015260840161051d565b6001600160a01b0383811660008181526001602090815260408083209487168084529482529182902085905590518481527f8c5be1e5ebec7d5bd14f71427d1e84f3dd0314c0f7b2291e5b200ac8c7c3b925910160405180910390a3505050565b6001600160a01b038316610ee95760405162461bcd60e51b815260206004820152602560248201527f45524332303a207472616e736665722066726f6d20746865207a65726f206164604482015264647265737360d81b606482015260840161051d565b6001600160a01b038216610f4b5760405162461bcd60e51b815260206004820152602360248201527f45524332303a207472616e7366657220746f20746865207a65726f206164647260448201526265737360e81b606482015260840161051d565b6001600160a01b03831660009081526020819052604090205481811015610fc35760405162461bcd60e51b815260206004820152602660248201527f45524332303a207472616e7366657220616d6f756e7420657863656564732062604482015265616c616e636560d01b606482015260840161051d565b6001600160a01b03808516600090815260208190526040808220858503905591851681529081208054849290610ffa908490611bcf565b92505081905550826001600160a01b0316846001600160a01b03167fddf252ad1be2c89b69c2b068fc378daa952ba7f163c4a11628f55a4df523b3ef8460405161104691815260200190565b60405180910390a36110598484846113b0565b50505050565b60007f00000000000000000000000000000000000000000000000000000000000000004614156110ae57507f000000000000000000000000000000000000000000000000000000000000000090565b50604080517f00000000000000000000000000000000000000000000000000000000000000006020808301919091527f0000000000000000000000000000000000000000000000000000000000000000828401527f000000000000000000000000000000000000000000000000000000000000000060608301524660808301523060a0808401919091528351808403909101815260c0909201909252805191012090565b8154600090815b818110156111b657600061116d82846113e2565b90508486828154811061118257611182611c81565b60009182526020909120015463ffffffff1611156111a2578092506111b0565b6111ad816001611bcf565b91505b50611159565b81156111fa57846111c8600184611c09565b815481106111d8576111d8611c81565b60009182526020909120015464010000000090046001600160e01b03166111fd565b60005b6001600160e01b031695945050505050565b6001600160a01b038281166000818152600660208181526040808420805485845282862054949093528787166001600160a01b03198416811790915590519190951694919391928592917f3134e8a2e6d97e929a7e54011ea5485d7d196dd5f0ba4d4ef95803e8e3fc257f9190a46110598284836113fd565b6112928282610b8b565b6002546001600160e01b0310156113045760405162461bcd60e51b815260206004820152603060248201527f4552433230566f7465733a20746f74616c20737570706c79207269736b73206f60448201526f766572666c6f77696e6720766f74657360801b606482015260840161051d565b6110596008610c728361153a565b600061063261131f61105f565b8360405161190160f01b6020820152602281018390526042810182905260009060620160405160208183030381529060405280519060200120905092915050565b6000806000611371878787876116b3565b9150915061137e816117a0565b5095945050505050565b6001600160a01b03811660009081526005602052604090208054600181018255905b50919050565b6001600160a01b03838116600090815260066020526040808220548584168352912054610d50929182169116836113fd565b60006113f16002848418611be7565b6105fc90848416611bcf565b816001600160a01b0316836001600160a01b03161415801561141f5750600081115b15610d50576001600160a01b038316156114ad576001600160a01b0383166000908152600760205260408120819061145a90610d558561153a565b91509150846001600160a01b03167fdec2bacdd2f05b59de34da9b523dff8be42e5e38e818c82fdb0bae774387a72483836040516114a2929190918252602082015260400190565b60405180910390a250505b6001600160a01b03821615610d50576001600160a01b038216600090815260076020526040812081906114e390610c728561153a565b91509150836001600160a01b03167fdec2bacdd2f05b59de34da9b523dff8be42e5e38e818c82fdb0bae774387a724838360405161152b929190918252602082015260400190565b60405180910390a25050505050565b8254600090819080156115855785611553600183611c09565b8154811061156357611563611c81565b60009182526020909120015464010000000090046001600160e01b0316611588565b60005b6001600160e01b031692506115a183858763ffffffff16565b91506000811180156115df575043866115bb600184611c09565b815481106115cb576115cb611c81565b60009182526020909120015463ffffffff16145b1561163f576115ed82610c7e565b866115f9600184611c09565b8154811061160957611609611c81565b9060005260206000200160000160046101000a8154816001600160e01b0302191690836001600160e01b031602179055506116aa565b85604051806040016040528061165443610ceb565b63ffffffff16815260200161166885610c7e565b6001600160e01b0390811690915282546001810184556000938452602093849020835194909301519091166401000000000263ffffffff909316929092179101555b50935093915050565b6000807f7fffffffffffffffffffffffffffffff5d576e7357a4501ddfe92f46681b20a08311156116ea5750600090506003611797565b8460ff16601b1415801561170257508460ff16601c14155b156117135750600090506004611797565b6040805160008082526020820180845289905260ff881692820192909252606081018690526080810185905260019060a0016020604051602081039080840390855afa158015611767573d6000803e3d6000fd5b5050604051601f1901519150506001600160a01b03811661179057600060019250925050611797565b9150600090505b94509492505050565b60008160048111156117b4576117b4611c6b565b14156117bd5750565b60018160048111156117d1576117d1611c6b565b141561181f5760405162461bcd60e51b815260206004820152601860248201527f45434453413a20696e76616c6964207369676e61747572650000000000000000604482015260640161051d565b600281600481111561183357611833611c6b565b14156118815760405162461bcd60e51b815260206004820152601f60248201527f45434453413a20696e76616c6964207369676e6174757265206c656e67746800604482015260640161051d565b600381600481111561189557611895611c6b565b14156118ee5760405162461bcd60e51b815260206004820152602260248201527f45434453413a20696e76616c6964207369676e6174757265202773272076616c604482015261756560f01b606482015260840161051d565b600481600481111561190257611902611c6b565b141561060d5760405162461bcd60e51b815260206004820152602260248201527f45434453413a20696e76616c6964207369676e6174757265202776272076616c604482015261756560f01b606482015260840161051d565b80356001600160a01b038116811461197257600080fd5b919050565b803560ff8116811461197257600080fd5b60006020828403121561199a57600080fd5b6105fc8261195b565b600080604083850312156119b657600080fd5b6119bf8361195b565b91506119cd6020840161195b565b90509250929050565b6000806000606084860312156119eb57600080fd5b6119f48461195b565b9250611a026020850161195b565b9150604084013590509250925092565b600080600080600080600060e0888a031215611a2d57600080fd5b611a368861195b565b9650611a446020890161195b565b95506040880135945060608801359350611a6060808901611977565b925060a0880135915060c0880135905092959891949750929550565b60008060408385031215611a8f57600080fd5b611a988361195b565b946020939093013593505050565b60008060008060008060c08789031215611abf57600080fd5b611ac88761195b565b95506020870135945060408701359350611ae460608801611977565b92506080870135915060a087013590509295509295509295565b60008060408385031215611b1157600080fd5b611b1a8361195b565b9150602083013563ffffffff81168114611b3357600080fd5b809150509250929050565b600060208284031215611b5057600080fd5b5035919050565b60008060408385031215611b6a57600080fd5b823591506119cd6020840161195b565b600060208083528351808285015260005b81811015611ba757858101830151858201604001528201611b8b565b81811115611bb9576000604083870101525b50601f01601f1916929092016040019392505050565b60008219821115611be257611be2611c55565b500190565b600082611c0457634e487b7160e01b600052601260045260246000fd5b500490565b600082821015611c1b57611c1b611c55565b500390565b600181811c90821680611c3457607f821691505b602082108114156113aa57634e487b7160e01b600052602260045260246000fd5b634e487b7160e01b600052601160045260246000fd5b634e487b7160e01b600052602160045260246000fd5b634e487b7160e01b600052603260045260246000fdfea26469706673582212203dcb189ee9d035e3315849a3b5e747e34d67bc4547254a733e9bb245dd1abb0664736f6c63430008060033dec2bacdd2f05b59de34da9b523dff8be42e5e38e818c82fdb0bae774387a724",
  "devdoc": {
    "author": "CVault Finance",
    "kind": "dev",
    "methods": {
      "DOMAIN_SEPARATOR()": {
        "details": "See {IERC20Permit-DOMAIN_SEPARATOR}."
      },
      "allowance(address,address)": {
        "details": "See {IERC20-allowance}."
      },
      "approve(address,uint256)": {
        "details": "See {IERC20-approve}. Requirements: - `spender` cannot be the zero address."
      },
      "balanceOf(address)": {
        "details": "See {IERC20-balanceOf}."
      },
      "checkpoints(address,uint32)": {
        "details": "Get the `pos`-th checkpoint for `account`."
      },
      "decimals()": {
        "details": "Returns the number of decimals used to get its user representation. For example, if `decimals` equals `2`, a balance of `505` tokens should be displayed to a user as `5.05` (`505 / 10 ** 2`). Tokens usually opt for a value of 18, imitating the relationship between Ether and Wei. This is the value {ERC20} uses, unless this function is overridden; NOTE: This information is only used for _display_ purposes: it in no way affects any of the arithmetic of the contract, including {IERC20-balanceOf} and {IERC20-transfer}."
      },
      "decreaseAllowance(address,uint256)": {
        "details": "Atomically decreases the allowance granted to `spender` by the caller. This is an alternative to {approve} that can be used as a mitigation for problems described in {IERC20-approve}. Emits an {Approval} event indicating the updated allowance. Requirements: - `spender` cannot be the zero address. - `spender` must have allowance for the caller of at least `subtractedValue`."
      },
      "delegate(address)": {
        "details": "Delegate votes from the sender to `delegatee`."
      },
      "delegateBySig(address,uint256,uint256,uint8,bytes32,bytes32)": {
        "details": "Delegates votes from signer to `delegatee`"
      },
      "delegates(address)": {
        "details": "Get the address `account` is currently delegating to."
      },
      "getPastTotalSupply(uint256)": {
        "details": "Retrieve the `totalSupply` at the end of `blockNumber`. Note, this value is the sum of all balances. It is but NOT the sum of all the delegated votes! Requirements: - `blockNumber` must have been already mined"
      },
      "getPastVotes(address,uint256)": {
        "details": "Retrieve the number of votes for `account` at the end of `blockNumber`. Requirements: - `blockNumber` must have been already mined"
      },
      "getVotes(address)": {
        "details": "Gets the current votes balance for `account`"
      },
      "increaseAllowance(address,uint256)": {
        "details": "Atomically increases the allowance granted to `spender` by the caller. This is an alternative to {approve} that can be used as a mitigation for problems described in {IERC20-approve}. Emits an {Approval} event indicating the updated allowance. Requirements: - `spender` cannot be the zero address."
      },
      "name()": {
        "details": "Returns the name of the token."
      },
      "nonces(address)": {
        "details": "See {IERC20Permit-nonces}."
      },
      "numCheckpoints(address)": {
        "details": "Get number of checkpoints for `account`."
      },
      "permit(address,address,uint256,uint256,uint8,bytes32,bytes32)": {
        "details": "See {IERC20Permit-permit}."
      },
      "symbol()": {
        "details": "Returns the symbol of the token, usually a shorter version of the name."
      },
      "totalSupply()": {
        "details": "See {IERC20-totalSupply}."
      },
      "transfer(address,uint256)": {
        "details": "See {IERC20-transfer}. Requirements: - `recipient` cannot be the zero address. - the caller must have a balance of at least `amount`."
      },
      "transferFrom(address,address,uint256)": {
        "details": "See {IERC20-transferFrom}. Emits an {Approval} event indicating the updated allowance. This is not required by the EIP. See the note at the beginning of {ERC20}. Requirements: - `sender` and `recipient` cannot be the zero address. - `sender` must have a balance of at least `amount`. - the caller must have allowance for ``sender``'s tokens of at least `amount`."
      }
    },
    "title": "CoreDAO ERC20 Governance Token",
    "version": 1
  },
  "userdoc": {
    "kind": "user",
    "methods": {
      "constructor": {
        "notice": "controller is initially the cLending contract, this can be modified by upgrading the cLending contract via the Governor contract voting with this tokens"
      }
    },
    "version": 1
  },
  "storageLayout": {
    "storage": [
      {
        "astId": 3810,
        "contract": "contracts/CoreDAO.sol:CoreDAO",
        "label": "_balances",
        "offset": 0,
        "slot": "0",
        "type": "t_mapping(t_address,t_uint256)"
      },
      {
        "astId": 3816,
        "contract": "contracts/CoreDAO.sol:CoreDAO",
        "label": "_allowances",
        "offset": 0,
        "slot": "1",
        "type": "t_mapping(t_address,t_mapping(t_address,t_uint256))"
      },
      {
        "astId": 3818,
        "contract": "contracts/CoreDAO.sol:CoreDAO",
        "label": "_totalSupply",
        "offset": 0,
        "slot": "2",
        "type": "t_uint256"
      },
      {
        "astId": 3820,
        "contract": "contracts/CoreDAO.sol:CoreDAO",
        "label": "_name",
        "offset": 0,
        "slot": "3",
        "type": "t_string_storage"
      },
      {
        "astId": 3822,
        "contract": "contracts/CoreDAO.sol:CoreDAO",
        "label": "_symbol",
        "offset": 0,
        "slot": "4",
        "type": "t_string_storage"
      },
      {
        "astId": 5112,
        "contract": "contracts/CoreDAO.sol:CoreDAO",
        "label": "_nonces",
        "offset": 0,
        "slot": "5",
        "type": "t_mapping(t_address,t_struct(Counter)5619_storage)"
      },
      {
        "astId": 4441,
        "contract": "contracts/CoreDAO.sol:CoreDAO",
        "label": "_delegates",
        "offset": 0,
        "slot": "6",
        "type": "t_mapping(t_address,t_address)"
      },
      {
        "astId": 4447,
        "contract": "contracts/CoreDAO.sol:CoreDAO",
        "label": "_checkpoints",
        "offset": 0,
        "slot": "7",
        "type": "t_mapping(t_address,t_array(t_struct(Checkpoint)4432_storage)dyn_storage)"
      },
      {
        "astId": 4451,
        "contract": "contracts/CoreDAO.sol:CoreDAO",
        "label": "_totalSupplyCheckpoints",
        "offset": 0,
        "slot": "8",
        "type": "t_array(t_struct(Checkpoint)4432_storage)dyn_storage"
      }
    ],
    "types": {
      "t_address": {
        "encoding": "inplace",
        "label": "address",
        "numberOfBytes": "20"
      },
      "t_array(t_struct(Checkpoint)4432_storage)dyn_storage": {
        "base": "t_struct(Checkpoint)4432_storage",
        "encoding": "dynamic_array",
        "label": "struct ERC20Votes.Checkpoint[]",
        "numberOfBytes": "32"
      },
      "t_mapping(t_address,t_address)": {
        "encoding": "mapping",
        "key": "t_address",
        "label": "mapping(address => address)",
        "numberOfBytes": "32",
        "value": "t_address"
      },
      "t_mapping(t_address,t_array(t_struct(Checkpoint)4432_storage)dyn_storage)": {
        "encoding": "mapping",
        "key": "t_address",
        "label": "mapping(address => struct ERC20Votes.Checkpoint[])",
        "numberOfBytes": "32",
        "value": "t_array(t_struct(Checkpoint)4432_storage)dyn_storage"
      },
      "t_mapping(t_address,t_mapping(t_address,t_uint256))": {
        "encoding": "mapping",
        "key": "t_address",
        "label": "mapping(address => mapping(address => uint256))",
        "numberOfBytes": "32",
        "value": "t_mapping(t_address,t_uint256)"
      },
      "t_mapping(t_address,t_struct(Counter)5619_storage)": {
        "encoding": "mapping",
        "key": "t_address",
        "label": "mapping(address => struct Counters.Counter)",
        "numberOfBytes": "32",
        "value": "t_struct(Counter)5619_storage"
      },
      "t_mapping(t_address,t_uint256)": {
        "encoding": "mapping",
        "key": "t_address",
        "label": "mapping(address => uint256)",
        "numberOfBytes": "32",
        "value": "t_uint256"
      },
      "t_string_storage": {
        "encoding": "bytes",
        "label": "string",
        "numberOfBytes": "32"
      },
      "t_struct(Checkpoint)4432_storage": {
        "encoding": "inplace",
        "label": "struct ERC20Votes.Checkpoint",
        "members": [
          {
            "astId": 4429,
            "contract": "contracts/CoreDAO.sol:CoreDAO",
            "label": "fromBlock",
            "offset": 0,
            "slot": "0",
            "type": "t_uint32"
          },
          {
            "astId": 4431,
            "contract": "contracts/CoreDAO.sol:CoreDAO",
            "label": "votes",
            "offset": 4,
            "slot": "0",
            "type": "t_uint224"
          }
        ],
        "numberOfBytes": "32"
      },
      "t_struct(Counter)5619_storage": {
        "encoding": "inplace",
        "label": "struct Counters.Counter",
        "members": [
          {
            "astId": 5618,
            "contract": "contracts/CoreDAO.sol:CoreDAO",
            "label": "_value",
            "offset": 0,
            "slot": "0",
            "type": "t_uint256"
          }
        ],
        "numberOfBytes": "32"
      },
      "t_uint224": {
        "encoding": "inplace",
        "label": "uint224",
        "numberOfBytes": "28"
      },
      "t_uint256": {
        "encoding": "inplace",
        "label": "uint256",
        "numberOfBytes": "32"
      },
      "t_uint32": {
        "encoding": "inplace",
        "label": "uint32",
        "numberOfBytes": "4"
      }
    }
  }
}